:020000040800F2
:1000000000000220CD3A0008C9380008CF380008A7
:10001000D5380008DB380008E1380008000000008F
:10002000000000000000000000000000E7380008A9
:10003000F5380008000000000339000811390008F5
:100040001D3B00081D3B00081D3B00081D3B000830
:100050001D3B00081D3B00081D3B00081D3B000820
:100060001D3B00081D3B00081D3B00081D3B000810
:100070001D3B00081D3B00081D3B00081D3B000800
:100080001D3B00081D3B00081D3B00080000000050
:100090000000000000000000000000001D3B000800
:1000A0001D3B00081D3B00081D3B00081D3B0008D0
:1000B0001D3B00081D3B00081D3B00081D3B0008C0
:1000C0001D3B00081D3B00081D3B00081D3B0008B0
:1000D0001D3B00081D3B00081D3B00080000000000
:1000E0001D3B00081D3B00081D3B000800000000F0
:1000F0000000000000000000000000001D3B0008A0
:10010000000000001D3B00081D3B00081D3B0008CF
:1001100000000000000000000000000000000000DF
:100120001D3B00081D3B00081D3B00081D3B00084F
:100130001D3B00080000000000000000000000005F
:100140000000000000000000000000001D3B00084F
:100150001D3B00081D3B00081D3B00081D3B00081F
:100160001D3B00081D3B00080000000000000000CF
:10017000000000000000000000000000000000007F
:10018000000000001D3B000800000000000000000F
:080190001D3B00081D3B0008A7
:1001A00010B5054C237833B9044B13B10448AFF3B1
:1001B00000800123237010BDE0010020000000003A
:1001C00020B0000808B5034B1BB103490348AFF347
:1001D000008008BD00000000E401002020B00008FD
:1001E000034613F8012B002AFBD1181A0138704777
:1001F00001F0FF01102A2BDB10F0070F08D010F8D8
:10020000013B013A8B422DD010F0070F42B3F6D1DB
:10021000F0B441EA012141EA014122F007047FF0F4
:1002200000070023F0E80256083C85EA010586EA4B
:10023000010685FA47F5A3FA87F586FA47F6A5FA87
:1002400087F68EB9EED1F0BC01F0FF0102F0070293
:1002500032B110F8013B013A83EA010313B1F8D13E
:100260000020704701387047002D06BF354603381F
:10027000073815F0010F07D1013015F4807F02BF58
:10028000013015F4C03F0130F0BC0138704700BFA9
:1002900081F0004102E000BF83F0004330B54FEA37
:1002A00041044FEA430594EA050F08BF90EA020FA4
:1002B0001FBF54EA000C55EA020C7FEA645C7FEA37
:1002C000655C00F0E2804FEA5454D4EB5555B8BF5A
:1002D0006D420CDD2C4480EA020281EA030382EACB
:1002E000000083EA010180EA020281EA0303362D5D
:1002F00088BF30BD11F0004F4FEA01314FF4801C30
:100300004CEA113102D0404261EB410113F0004F41
:100310004FEA03334CEA133302D0524263EB4303F8
:1003200094EA050F00F0A780A4F10104D5F1200E96
:100330000DDB02FA0EFC22FA05F2801841F10001F1
:1003400003FA0EF2801843FA05F359410EE0A5F1C5
:1003500020050EF1200E012A03FA0EFC28BF4CF0F6
:10036000020C43FA05F3C01851EBE37101F00045AC
:1003700007D54FF0000EDCF1000C7EEB00006EEBB9
:100380000101B1F5801F1BD3B1F5001F0CD3490843
:100390005FEA30004FEA3C0C04F101044FEA44529A
:1003A00012F5800F80F09A80BCF1004F08BF5FEA21
:1003B000500C50F1000041EB045141EA050130BD01
:1003C0005FEA4C0C404141EB0101013C28BFB1F513
:1003D000801FE9D291F0000F04BF01460020B1FA5E
:1003E00081F308BF2033A3F10B03B3F120020CDA31
:1003F0000C3208DD02F1140CC2F10C0201FA0CF00F
:1004000021FA02F10CE002F11402D8BFC2F1200C73
:1004100001FA02F120FA0CFCDCBF41EA0C01904029
:10042000E41AA2BF01EB0451294330BD6FEA040472
:100430001F3C1CDA0C340EDC04F11404C4F120025D
:1004400020FA04F001FA02F340EA030021FA04F36F
:1004500045EA030130BDC4F10C04C4F1200220FAC6
:1004600002F001FA04F340EA0300294630BD21FA04
:1004700004F0294630BD94F0000F83F4801306BFCA
:1004800081F480110134013D4EE77FEA645C18BFBE
:100490007FEA655C29D094EA050F08BF90EA020F55
:1004A00005D054EA000C04BF1946104630BD91EA4D
:1004B000030F1EBF0021002030BD5FEA545C05D150
:1004C0004000494128BF41F0004130BD14F580048F
:1004D0003CBF01F5801130BD01F0004545F0FE4103
:1004E00041F470014FF0000030BD7FEA645C1ABF38
:1004F000194610467FEA655C1CBF0B46024650EA6F
:10050000013406BF52EA033591EA030F41F400219A
:1005100030BD00BF90F0000F04BF0021704730B520
:100520004FF4806404F132044FF000054FF00001F5
:1005300050E700BF90F0000F04BF0021704730B5B6
:100540004FF4806404F1320410F0004548BF40428B
:100550004FF000013EE700BF42004FEAE2014FEAE0
:1005600031014FEA02701FBF12F07F4393F07F4FBB
:1005700081F06051704732F07F4208BF704793F0BE
:100580007F4F04BF41F40021704730B54FF46074D1
:1005900001F0004521F000411CE700BF50EA0102D4
:1005A00008BF704730B54FF000050AE050EA01027D
:1005B00008BF704730B511F0004502D5404261EBED
:1005C00041014FF4806404F132045FEA915C3FF42E
:1005D000D8AE4FF003025FEADC0C18BF03325FEACB
:1005E000DC0C18BF033202EBDC02C2F1200300FA7C
:1005F00003FC20FA02F001FA03FE40EA0E0021FAA1
:1006000002F11444BDE600BF70B54FF0FF0C4CF48E
:10061000E06C1CEA11541DBF1CEA135594EA0C0F40
:1006200095EA0C0F00F0DEF82C4481EA030621EA7B
:100630004C5123EA4C5350EA013518BF52EA0335B6
:1006400041F4801143F4801338D0A0FB02CE4FF068
:100650000005E1FB02E506F00042E0FB03E54FF098
:100660000006E1FB03569CF0000F18BF4EF0010E90
:10067000A4F1FF04B6F5007F64F5407404D25FEA8C
:100680004E0E6D4146EB060642EAC62141EA55513F
:100690004FEAC52040EA5E504FEACE2EB4F1FD0C81
:1006A00088BFBCF5E06F1ED8BEF1004F08BF5FEAFF
:1006B000500E50F1000041EB045170BD06F00046B1
:1006C00046EA010140EA020081EA0301B4EB5C045E
:1006D000C2BFD4EB0C0541EA045170BD41F4801156
:1006E0004FF0000E013C00F3AB8014F1360FDEBF7B
:1006F000002001F0004170BDC4F10004203C35DA57
:100700000C341BDC04F11404C4F1200500FA05F3D9
:1007100020FA04F001FA05F240EA020001F000427A
:1007200021F0004110EBD37021FA04F642EB0601F0
:100730005EEA430E08BF20EAD37070BDC4F10C041A
:10074000C4F1200500FA04F320FA05F001FA04F2DE
:1007500040EA020001F0004110EBD37041F10001CA
:100760005EEA430E08BF20EAD37070BDC4F12005D5
:1007700000FA05F24EEA020E20FA04F301FA05F23D
:1007800043EA020321FA04F001F0004121FA04F2E5
:1007900020EA020000EBD3705EEA430E08BF20EAB5
:1007A000D37070BD94F0000F0FD101F000464000EF
:1007B00041EB010111F4801F08BF013CF7D041EA71
:1007C000060195F0000F18BF704703F00046520075
:1007D00043EB030313F4801F08BF013DF7D043EA46
:1007E0000603704794EA0C0F0CEA135518BF95EAFC
:1007F0000C0F0CD050EA410618BF52EA4306D1D183
:1008000081EA030101F000414FF0000070BD50EAA1
:10081000410606BF1046194652EA430619D094EA2B
:100820000C0F02D150EA013613D195EA0C0F05D115
:1008300052EA03361CBF104619460AD181EA030169
:1008400001F0004141F0FE4141F470014FF0000021
:1008500070BD41F0FE4141F4780170BD70B54FF0BC
:10086000FF0C4CF4E06C1CEA11541DBF1CEA13553C
:1008700094EA0C0F95EA0C0F00F0A7F8A4EB05041E
:1008800081EA030E52EA03354FEA013100F0888015
:100890004FEA03334FF0805545EA131343EA1263DE
:1008A0004FEA022245EA111545EA10654FEA002693
:1008B0000EF000419D4208BF964244F1FD0404F54C
:1008C000407402D25B084FEA3202B61A65EB0305A8
:1008D0005B084FEA32024FF480104FF4002CB6EB65
:1008E000020E75EB030E22BFB61A754640EA0C00E5
:1008F0005B084FEA3202B6EB020E75EB030E22BF25
:10090000B61A754640EA5C005B084FEA3202B6EB65
:10091000020E75EB030E22BFB61A754640EA9C0024
:100920005B084FEA3202B6EB020E75EB030E22BFF4
:10093000B61A754640EADC0055EA060E18D04FEAB2
:10094000051545EA16754FEA06164FEAC30343EA52
:1009500052734FEAC2025FEA1C1CC0D111F4801F1F
:100960000BD141EA00014FF000004FF0004CB6E718
:1009700011F4801F04BF01430020B4F1FD0C88BFB7
:10098000BCF5E06F3FF6AFAEB5EB030C04BFB6EBC2
:10099000020C5FEA500C50F1000041EB045170BDB5
:1009A0000EF0004E4EEA113114EB5C04C2BFD4EBE2
:1009B0000C0541EA045170BD41F480114FF0000E66
:1009C000013C90E645EA060E8DE60CEA135594EAE2
:1009D0000C0F08BF95EA0C0F3FF43BAF94EA0C0FE5
:1009E0000AD150EA01347FF434AF95EA0C0F7FF45A
:1009F00025AF104619462CE795EA0C0F06D152EAAE
:100A000003353FF4FDAE1046194622E750EA410691
:100A100018BF52EA43067FF4C5AE50EA41047FF4A2
:100A20000DAF52EA43057FF4EBAE12E74FF0FF3C07
:100A300006E000BF4FF0010C02E000BF4FF0010CD8
:100A40004DF804CD4FEA410C7FEA6C5C4FEA430C51
:100A500018BF7FEA6C5C1BD001B050EA410C0CBFA0
:100A600052EA430C91EA030F02BF90EA020F002002
:100A7000704710F1000F91EA030F58BF994208BF69
:100A800090422CBFD8176FEAE37040F00100704726
:100A90004FEA410C7FEA6C5C02D150EA013C07D17D
:100AA0004FEA430C7FEA6C5CD6D152EA033CD3D0C8
:100AB0005DF8040B704700BF8446104662468C46C2
:100AC0001946634600E000BF01B5FFF7B7FF0028F5
:100AD00048BF10F1000F01BD4DF808EDFFF7F4FF1E
:100AE0000CBF012000205DF808FB00BF4DF808EDA9
:100AF000FFF7EAFF34BF012000205DF808FB00BFCC
:100B00004DF808EDFFF7E0FF94BF012000205DF8ED
:100B100008FB00BF4DF808EDFFF7CEFF94BF0120A2
:100B200000205DF808FB00BF4DF808EDFFF7C4FF9B
:100B300034BF012000205DF808FB00BF4FEA410CE4
:100B40007FEA6C5C02D150EA013C0AD14FEA430CC7
:100B50007FEA6C5C02D152EA033C02D14FF0000004
:100B600070474FF0010070474FEA410212F5001242
:100B700015D211D56FF47873B3EB625212D94FEAE4
:100B8000C12343F0004343EA505311F0004F23FACE
:100B900002F018BF404270474FF00000704750EA23
:100BA000013005D111F0004008BF6FF000407047E0
:100BB0004FF00000704700BF4A0011D212F500123A
:100BC00011D20DD56FF47873B3EB62520ED44FEAA5
:100BD000C12343F0004343EA505323FA02F0704725
:100BE0004FF00000704750EA013002D14FF0FF3063
:100BF00070474FF0000070474FEA4102B2F1E04306
:100C000024BFB3F5001CDCF1FE5C0DD901F0004CF3
:100C10004FEAC0024CEA5070B2F1004F40EB830043
:100C200008BF20F00100704711F0804F21D113F16F
:100C30003872BCBF01F00040704741F480114FEAA8
:100C40005252C2F11802C2F1200C10FA0CF320FA31
:100C500002F018BF40F001004FEAC1234FEAD3234E
:100C600003FA0CFC40EA0C0023FA02F34FEA4303B8
:100C7000CCE77FEA625307D150EA01331EBF4FF041
:100C8000FE4040F44000704701F0004040F0FE405C
:100C900040F40000704700BF53B94AB9002908BFAB
:100CA00000281CBF4FF0FF314FF0FF3000F0AAB911
:100CB000ADF1080C6DE904CE00F03CF8DDF804E07D
:100CC000DDE9022304B0704738B500220023044652
:100CD0000D46FFF70BFF28B920462946BDE83840EE
:100CE00000F00AB8204605F1004100F005F8404246
:100CF00061EB410138BD00BFD0B50C4B0022064668
:100D00000F46FFF781FCFFF757FF0446FFF702FC91
:100D1000074B0022FFF778FC02460B463046394667
:100D2000FFF7BAFAFFF748FF2146D0BD0000F03DBB
:100D30000000F0412DE9F047089D04468E46002B47
:100D40004DD18A42944669D9B2FA82F252B101FA7F
:100D500002F3C2F1200120FA01F10CFA02FC41EA8F
:100D6000030E94404FEA1C48210CBEFBF8F61FFA14
:100D70008CF708FB16E341EA034306FB07F19942AF
:100D80000AD91CEB030306F1FF3080F01F81994262
:100D900040F21C81023E63445B1AA4B2B3FBF8F03C
:100DA00008FB103344EA034400FB07F7A7420AD9C3
:100DB0001CEB040400F1FF3380F00A81A74240F2EB
:100DC00007816444023840EA0640E41B00261DB156
:100DD000D4400023C5E900433146BDE8F0878B428B
:100DE00009D9002D00F0EF800026C5E9000130464A
:100DF0003146BDE8F087B3FA83F6002E4AD18B4224
:100E000002D3824200F2F980841A61EB03030120CD
:100E10009E46002DE0D0C5E9004EDDE702B9FFDEB9
:100E2000B2FA82F2002A40F09280A1EB0C014FEA64
:100E30001C471FFA8CFE0126200CB1FBF7F307FBC1
:100E4000131140EA01410EFB03F0884208D91CEB64
:100E5000010103F1FF3802D2884200F2CB80434601
:100E6000091AA4B2B1FBF7F007FB101144EA0144E0
:100E70000EFB00FEA64508D91CEB040400F1FF316F
:100E800002D2A64500F2BB800846A4EB0E0440EA5D
:100E900003409CE7C6F12007B34022FA07FC4CEA66
:100EA000030C20FA07F401FA06F31C43F9404FEA59
:100EB0001C4900FA06F3B1FBF9F8200C1FFA8CFE6E
:100EC00009FB181140EA014108FB0EF0884202FAC2
:100ED00006F20BD91CEB010108F1FF3A80F0888083
:100EE000884240F28580A8F102086144091AA4B240
:100EF000B1FBF9F009FB101144EA014100FB0EFEC1
:100F00008E4508D91CEB010100F1FF346CD28E45EF
:100F10006AD90238614440EA0840A0FB0294A1EB80
:100F20000E01A142C846A64656D353D05DB1B3EBDD
:100F3000080261EB0E0101FA07F722FA06F3F1400D
:100F40001F43C5E9007100263146BDE8F087C2F1B4
:100F50002003D8400CFA02FC21FA03F3914001432C
:100F60004FEA1C471FFA8CFEB3FBF7F007FB103665
:100F70000B0C43EA064300FB0EF69E4204FA02F411
:100F800008D91CEB030300F1FF382FD29E422DD964
:100F9000023863449B1B89B2B3FBF7F607FB163399
:100FA00041EA034106FB0EF38B4208D91CEB010119
:100FB00006F1FF3816D28B4214D9023E6144C91A99
:100FC00046EA004638E72E46284605E70646E3E6A9
:100FD0001846F8E64B45A9D2B9EB020864EB0C0EB3
:100FE0000138A3E74646EAE7204694E74046D1E7C2
:100FF000D0467BE7023B614432E7304609E7644470
:10100000023842E7704700BFB0B58AB000AFF86061
:10101000B9607A603B6000233B6107F11403002252
:101020001A605A609A60DA60386801F094FC0346EE
:1010300087F8273097F92730002B6CD1FB68002BFD
:1010400069D0BB68002B66D07B68002B5DD07B68C5
:101050000A2B5AD80023BB8434E03B681B7B002B4F
:1010600018D1BB8CFA6813441B783968184601F014
:10107000E0FB034687F82730BB8CFA6813441A78E4
:10108000BB8C5B0002F07F02D2B228333B4403F8F2
:10109000182C09E0BB8CFA681A44BB8C5B001278F0
:1010A00028333B4403F8182CBB8CBA681A44BB8C19
:1010B0005B000133127828333B4403F8182CBB8CB7
:1010C0000133BB84BB8C7A689A42C6D897F9273023
:1010D000002B1ED13B685C6C387C7B685B005A1E21
:1010E0003B685D6807F11003591C2B46A047034677
:1010F0001A463B6883F84C203B6893F94C30002B30
:1011000007D0FE2387F8273003E0FC2387F8273039
:1011100004E000BF02E0FF2387F8273097F927306B
:1011200018462837BD46B0BD90B587B000AFB9604E
:101130007A603B600346FB73386801F00CFC0346A1
:10114000FB7597F91730002B2AD1BB68002B27D0ED
:101150003B681B7B002B0ED1FB7B3968184601F0E6
:1011600068FB0346FB7597F91730002B03D1FB7B17
:1011700063F07F03FB733B681C6C3B685B68F87B28
:101180007A68B968A04703461A463B6883F84C2042
:101190003B6893F94C30002B04D0FE23FB7501E033
:1011A000FF23FB7597F9173018461C37BD4690BDD5
:1011B00080B588B000AF786039600023BB77012329
:1011C0007B777C4A07F1140392E80300186004332C
:1011D00019700023FB6000233B7407F11C0339687E
:1011E000184600F04AF90346FB7797F91F30002BA9
:1011F00005D13968002000F0DFF80346FB777B68F3
:10120000002B02D1FF23FB77B2E097F91F30002BB0
:1012100040F0AE80387D07F10C013B680522FFF7F6
:1012200083FF0346FB773B68002283F84D2097F944
:101230001F30002B08D17B6803333A68072118461A
:1012400001F05CFB0346FB7797F91F30002B08D1B8
:101250007B6801333A680521184601F04FFB0346CD
:10126000FB7797F91F30002B08D17B6802333A686F
:101270000521184601F042FB0346FB7797F91F3022
:10128000002B07D17B683A680521184601F036FB30
:101290000346FB7797F91F30002B08D17B68043396
:1012A0003A680821184601F029FB0346FB7797F9B5
:1012B0001F30002B5CD13B7C5BB223F01C035AB285
:1012C0007B68DB789B005BB203F01C035BB21343CB
:1012D0005BB2DBB23B74FB7B5BB203F01F035AB221
:1012E0007B685B785B015BB213435BB2DBB2FB7381
:1012F000FB7B5BB223F01C035AB27B689B789B009C
:101300005BB203F01C035BB213435BB2DBB2FB7353
:101310007B7B5BB223F007035AB27B681B785BB21E
:1013200003F007035BB213435BB2DBB27B737B68F2
:101330001B79082B04D07B681B79BB7700237B7754
:101340003B7C5BB203F01F035AB2BB7F5B015BB215
:1013500013435BB2DBB23B743B7B5BB203F07F03B6
:101360005AB27B7FDB015BB213435BB2DBB23B73F0
:1013700097F91F30002B09D107F10C0107F1140078
:101380003B680522FFF740FE0346FB773B7F002BBF
:101390000AD097F91F30002B06D13B7F39681846D9
:1013A00000F00AF80346FB7797F91F3018462037FC
:1013B000BD4680BD38B0000880B584B000AF03469C
:1013C0003960FB710023BB7374233B7307F10D017C
:1013D0003B6801227420FFF7A7FE0346FB7397F9D1
:1013E0000F30002B1DD17B7B03F00303BB73BB7B52
:1013F000002B16D07B7B23F00303DBB27B7307F15A
:101400000D0107F10C003B680122FFF7FDFD0346CB
:10141000FB733B689B6C3A685268114642F210704D
:101420009847BB7B002B03D097F90F30002BCDD012
:10143000FB79002B1BD097F90F30002B17D17B7B4A
:101440005BB223F003035AB297F9073003F00303AA
:101450005BB213435BB2DBB27B7307F10D0107F1A3
:101460000C003B680122FFF7CFFD0346FB7397F9A1
:101470000F3018461037BD4680BD80B584B000AF30
:10148000786039607B68002B0FD007F10E013B6854
:1014900001227420FFF748FE0346FB73BB7B03F079
:1014A0000303DAB27B681A7001E0FF23FB7397F93C
:1014B0000F3018461037BD4680BD000080B58AB099
:1014C00000AF0346B9607A60FB7300233B62344A85
:1014D00007F1140392E80300186004331980BB6815
:1014E000002B58D0BB6801337A680521184601F0FB
:1014F00005FA034687F8273097F92730002B09D1E2
:10150000BB6802337A680521184601F0F7F90346F3
:1015100087F8273097F92730002B08D1BB687A6805
:101520000521184601F0EAF9034687F8273097F9B4
:101530002730002B2FD1BB685B7828333B4413F84E
:10154000143CFB61BB689B7828333B4413F8143C84
:101550001A46FB691344FB61BB681B7828333B4484
:1015600013F8143C1A46FB691344FB61FB6940F213
:10157000AB7202FB03F33B623B6A03F274733B62A0
:101580003B6A03F651133B62FB7B022B03D03B6AA1
:1015900003F57A733B623B6A18462837BD4680BD27
:1015A00040B00008B0B59AB000AFB9607A603B6057
:1015B0000346FB73002387F86630002387F8653005
:1015C000002387F8643007F1580300221A605A603C
:1015D0009A6007F1100348220021184605F0B6F87A
:1015E00007F11003BB6507F110031833FB6507F122
:1015F000100330333B66386801F0ADF9034687F8D5
:10160000673097F96730002B40F0C180BB68002B32
:1016100000F0BD80FB7B012B1CD13A68B96800202B
:1016200000F08BFD034687F8673097F96730002B91
:1016300040F0A180BB681B785BB2002B03DA01236A
:1016400087F8643097E0002387F86430022387F836
:10165000673090E0FB7B022B03D0FB7B032B40F039
:10166000878007F158033968184600F0B0FE03463A
:1016700087F86730002387F86430002387F86630E6
:1016800014E097F866309B0068333B4453F8103CF5
:101690001B785BB2002B04DA97F86430013387F8CB
:1016A000643097F86630013387F8663097F8663013
:1016B000022B03D897F96730002BE2D0002387F87C
:1016C00066301CE097F86630013387F865300DE02E
:1016D00007F1580297F8651097F86630184601F040
:1016E000E5FA97F86530013387F8653097F865308B
:1016F000022BEDD997F86630013387F8663097F8FA
:101700006630012B03D897F96730002BDAD000231D
:1017100087F866301CE097F866309B0068333B44DE
:1017200053F8101C97F8662013465B001344DB0047
:101730001A46BB6813441C460D460FCD0FC495E8EE
:10174000030084E8030097F86630013387F86630B9
:1017500097F86630022B03D897F96730002BDAD060
:1017600097F86430002B06D1022387F8673002E037
:10177000012387F867307B68002B03D1FF2387F8AC
:10178000673007E07B6897F864201A7002E0FF2357
:1017900087F8673097F9673018466837BD46B0BD9F
:1017A00080B588B000AF0346B9607A60FB73002350
:1017B0003B7700237B7747F27013BB82BB68002B1B
:1017C0006ED079680020FFF7F7FD0346FB7797F9A5
:1017D0001F30002B08D107F11C02F97B7B68B86829
:1017E00001F0D8F80346FB7797F91F30002B59D149
:1017F00007F118017B6802227020FFF795FC034671
:10180000FB7797F91F30002B4CD1BB681B78012B5D
:101810000BD10023BB777B689B68012B02D102238D
:101820007B7706E001237B7703E00123BB7700236E
:101830007B773B7E5BB223F008035AB2BB7FDB00B1
:101840005BB203F008035BB213435BB2DBB23B76DF
:101850007B7E5BB223F00F035AB23B7F5BB203F097
:101860000F035BB213435BB2DBB27B767B7E5BB272
:1018700023F030035AB27B7F1B015BB203F03003CD
:101880005BB213435BB2DBB27B7607F1180107F161
:1018900014007B680222FFF7B7FB0346FB7701E0E9
:1018A000FF23FB7797F91F3018462037BD4680BDD0
:1018B00080B487B000AF786039607B6807EE903AFB
:1018C000F8EE677ADFED386A87EEA67A3B68DB8B45
:1018D00007EE903AF8EE676A9FED346AC6EE867AB4
:1018E00037EE677A3B68B3F9203007EE903AF8EEAE
:1018F000E77A67EE277AC7ED057A7B6807EE903ABC
:10190000F8EE677ADFED2A6A87EEA67A3B68DB8B12
:1019100007EE903AF8EE676A9FED266AC6EE867A81
:1019200037EE677A7B6807EE903AF8EE677A9FEDBC
:10193000206AC7EE866A3B68DB8B07EE903AB8EE0A
:10194000676ADFED1C5AC6EE257A76EEE77A27EE57
:10195000277A3B6893F9223007EE903AF8EEE77A5F
:10196000F3EE006A67EEA67A67EE277AC7ED047A8F
:1019700097ED057AD7ED047A77EE277A3B68C3EDC9
:101980000E7A3B6893ED0E7ADFED0B6AC7EE267A8E
:10199000C7ED037AFB6807EE903AB0EE670A1C3792
:1019A000BD465DF8047B704700008046000080441F
:1019B00000000048000000460000A04580B487B049
:1019C00000AF786039603B6893ED0E7AF0EE006A04
:1019D000C7EE267A9FED8E7A77EEC77AC7ED047A46
:1019E000D7ED047A27EEA77A3B6893F92E3007EEFD
:1019F000903AF8EEE76A9FED876AC6EE867A67EE60
:101A0000277AC7ED037A3B68B3F92C3007EE903A9A
:101A1000B8EEE77AD7ED047A67EE277A77EEA77A01
:101A200097ED037A77EE277AC7ED037AD7ED037A3D
:101A3000F1EE006A87EEA67A3B68B3F92A3007EE2A
:101A4000903AF8EEE77ADFED746A67EEA67A77EE01
:101A5000277AC7ED037A3B6893F9283007EE903A6E
:101A6000B8EEE77AD7ED047A27EE277AD7ED047A35
:101A700067EE277ADFED696A87EEA67A3B68B3F9ED
:101A8000263007EE903AF8EEE76AD7ED047A66EE74
:101A9000A77A37EE277ADFED626AC7EE267AC7EDBE
:101AA000047A97ED047ADFED5F6AC7EE267AB7EE27
:101AB000007A37EE877A3B689B8C07EE903AF8EE17
:101AC000677A67EE277AC7ED047A7B6807EE903A6B
:101AD000F8EE677A9FED547A77EE677AC7ED057A6C
:101AE000D7ED047AFDEEE77A17EE903A002B00F07E
:101AF000818097ED037ADFED4D6AC7EE267A97ED88
:101B0000057A77EE677A9FED4A7A67EE876A97EDF6
:101B1000047AC6EE877AC7ED057A3B68B3F93230AE
:101B200007EE903AB8EEE77AD7ED057A27EE277AF6
:101B3000D7ED057A27EE277ADFED3E6AC7EE267AE3
:101B4000C7ED047A3B68B3F9303007EE903AB8EE4F
:101B5000E77ADFED346AC7EE267A97ED057A67EE0D
:101B6000277AC7ED037AD7ED057ADFED336A87EE82
:101B7000A67AD7ED056A9FED306AC6EE867A27EE23
:101B8000277AD7ED056A9FED2C6AC6EE867A27EE96
:101B9000277A3B6893F8343007EE903AF8EEE76A1C
:101BA0009FED1C6AC6EE867A67EE277AC7ED027A49
:101BB00097ED047AD7ED037A37EE277AD7ED027ADC
:101BC00037EE277A3B6893F92F3007EE903AF8EE1C
:101BD000E77ADFED1A6A67EEA67A37EE277AF3EE38
:101BE000006AC7EE267A97ED057A77EE277AC7ED79
:101BF000057A02E04FF000037B617B6907EE903AC3
:101C0000B0EE670A1C37BD465DF8047B704700BF25
:101C100000007A470000004800008047000080462E
:101C20000000004900000047000080490000804596
:101C30000050C3450000004F0000804300000043F7
:101C400080B489B000AF03463960FB803B6893EDF8
:101C50000E7ADFED5A6AC7EE267AC7ED067AFB8860
:101C600007EE903AB8EE677A3B681B8A07EE903A27
:101C7000F8EE677AF3EE006A67EEA66A3B6893F9BE
:101C8000143007EE903AF8EEE77AF0EE005A87EE5D
:101C9000A56AD7ED067A66EE277A76EEA77A77EE12
:101CA000677AC7ED057A3B685B8A07EE903AF8EEF3
:101CB000677ADFED436A87EEA67A3B6893F91530C1
:101CC00007EE903AF8EEE77A9FED3E6AC7EE866A35
:101CD000D7ED067A66EEA77AF7EE006A77EEA66A87
:101CE0003B6893F9163007EE903AF8EEE77ADFEDAD
:101CF000365A87EEA56AD7ED067A26EE276AD7ED23
:101D0000067A66EE277A76EEA77A67EE277A97ED5F
:101D1000057A67EE277AC7ED047A3B68DB7D07EE2C
:101D2000903AB8EE677ADFED276AC7EE267AC7EDFC
:101D3000037A3B6893F9183007EE903AB8EEE77AE9
:101D4000DFED226AC7EE267AC7ED027A97ED027AB6
:101D5000D7ED067A27EE277AD7ED037A37EE277A82
:101D6000D7ED047A27EE277AD7ED047A67EE277A43
:101D700097ED047A77EE277AC7ED077AD7ED077AE1
:101D80009FED137AF4EEC77AF1EE10FA02DD114BF3
:101D9000FB6109E0D7ED077AF5EEC07AF1EE10FAB3
:101DA00002D54FF00003FB61FB6907EE903AB0EEFD
:101DB000670A2437BD465DF8047B70470000A045E4
:101DC0000000804800008046000080490000004A72
:101DD0000000C8420000C842B0B4A9B000AF03463A
:101DE0003A60FB800B467B71FB8807EE903AF8EE79
:101DF000677AC7ED277A7B79012202FA03F307EEAF
:101E0000903AF8EE677AC7ED267A3E4B07F1480420
:101E10001D460FCD0FC40FCD0FC40FCD0FC495E8D5
:101E20000F0084E80F00384B07F108041D460FCD62
:101E30000FC40FCD0FC40FCD0FC495E80F0084E879
:101E40000F003B6893F93E3007EE903AF8EEE77AE0
:101E5000B1EE047A67EE877A9FED2C7A77EE877A77
:101E6000C7ED257A7B799B00A0333B44583B93ED2B
:101E7000007ADFED276AC7EE267AB7EE007A77EEB2
:101E8000877A97ED257A67EE277AC7ED247A7B79F2
:101E90009B00A0333B44983B93ED007ADFED1C6A36
:101EA000C7EE267AB7EE007A77EE877AC7ED237A07
:101EB000D7ED237A9FED177A27EE877AD7ED267A2A
:101EC00027EE277AD7ED277ADFED136A37EEE66A39
:101ED000D7ED246AC6EE267AF7EE006A77EEA67A88
:101EE00027EE277AF7EE006AC6EE877AC7ED227AE8
:101EF000D7F8883007EE903AB0EE670AA437BD46AF
:101F0000B0BC704748B0000888B000080080A74403
:101F10000000C842BD3706340000004480B487B0DA
:101F200000AF03460A46FB8013467B717B794FF472
:101F3000802222FA03F37B61FB88A3F500733B61E7
:101F40003A6913465B0013443B613B6903F58053D8
:101F50003B617B6907EE903AF8EE677A9FED0B7A6A
:101F600067EE876A3B6907EE903AB8EEE77AC6EE0D
:101F7000877AC7ED037AFB6807EE903AB0EE670AFE
:101F80001C37BD465DF8047B704700BF00247449D0
:101F900080B48BB000AF0346B960FB81FB89B3F519
:101FA000C87F02D94FF4C873FB81BB6893F919301D
:101FB00007EE903AB8EEE77AF3EE006AC7EE267ABB
:101FC0009FED447A77EE877AC7ED097ABB68B3F95B
:101FD0001A3007EE903AB8EEE77ADFED3F6AC7EEC7
:101FE000267A9FED3E7A67EE877A9FED3D7A77EE0F
:101FF000877AC7ED087ABB6893F91C3007EE903AF0
:10200000B8EEE77ADFED376AC7EE267AC7ED077AD2
:10201000FB8907EE903AB8EE677AD7ED087A67EE5B
:10202000277AB7EE007A77EE877A97ED097A67EE2E
:10203000277AC7ED067ABB6893F90E3007EE903A1F
:10204000B8EEE77AD7ED077A67EE277A97ED067A4A
:1020500077EE277AC7ED057ABB6893F83C3007EE38
:10206000903AF8EE677AB1EE007A77EE877AF1EE81
:10207000006A86EEA77AD7ED057A27EE277ABB6845
:1020800093F93D3007EE903AF8EEE77ADFED166A05
:1020900067EEA67AF7EE006A77EEA66AB7EE006AF8
:1020A000C6EE267A67EE277AB3EE097A77EEC77A1C
:1020B0009FED0E7A67EE877AFCEEE77AC7ED017A3C
:1020C0003B79FB74FB7C18462C37BD465DF8047BDE
:1020D000704700BF00004442000000476F12033AFF
:1020E00075021A3B000080446F12033B9A995940D5
:1020F00080B485B000AF0346FB800023FB73FB88F0
:10210000B3F57C6F08D3FF23BB730FE0FB889B08FC
:10211000FB80FB7B0133FB73FB883F2BF6D8FB88EE
:10212000DAB2FB7B9B01DBB21344BB73BB7B18466B
:102130001437BD465DF8047B704780B58EB000AFA4
:102140000346B9607A60FB73002387F837300023B9
:102150003B6107F1140300221A605A609A601A73F7
:10216000052387F8363023E1FB7B1A46120113441E
:10217000DBB21D33D8B207F110017B681122FEF7E4
:10218000D3FF034687F83730BB68002B03D1FF230A
:1021900087F8373015E13B7C23F07F03DAB2BB6868
:1021A0001A703B7C03F00F03DAB2BB685A707A7C7A
:1021B000BB689A70BB7C1A03FB7C1B0113433A7DFE
:1021C0001209D2B213433B637B7D1A03BB7D1B0113
:1021D0001343FA7D1209D2B21343FB623B7E9BB2DA
:1021E0001B029AB27B7E9BB213437B857B7F9BB2A3
:1021F0009B009AB2BB7F9B09DBB29BB213433B852A
:10220000FB7F9BB29B009AB297F820309B09DBB210
:102210009BB21343FB84BB7F03F00F0387F8253089
:1022200097F8203003F00F0387F824307B689B6811
:10223000012B1CD1BB681B785AB297F820305BB2D7
:1022400003F020035BB213435BB2DAB2BB681A70CF
:10225000BB681B785AB297F820305BB203F01003CA
:102260005BB213435BB2DAB2BB681A7019E0BB68A9
:102270001B785AB2BB7F5BB203F020035BB21343FF
:102280005BB2DAB2BB681A70BB681B785AB2BB7F0C
:102290005BB203F010035BB213435BB2DAB2BB680C
:1022A0001A70BB681B785BB2002B70DA97F9373075
:1022B000002B6CD1BB685B785A33D8B2BB68D91C91
:1022C0007B680122FEF730FF034687F8373097F925
:1022D0003730002B0CD1BB685B785033D8B2BB6869
:1022E000191D7B680122FEF71FFF034687F8373070
:1022F00097F93730002B0CD1BB685B786433D8B2C8
:10230000BB68591D7B680122FEF70EFF034687F864
:10231000373097F93730002B39D17968F86AFFF7F1
:10232000C7FAF0EE407ABB68C3ED027A7968386B81
:10233000FFF744FBF0EE407ABB68C3ED037A7B8D78
:1023400079681846FFF77CFCF0EE407ABB68C3ED75
:10235000047A7B689B68012B0CD197F82420FB8CB6
:1023600011461846FFF7DAFDF0EE407ABB68C3ED80
:10237000057A26E097F825103B8D7A681846FFF716
:102380002BFDF0EE407ABB68C3ED057A19E097F9B2
:102390003730002B07D17B689B6C7A6852681146F6
:1023A00042F21070984797F83630013B87F8363084
:1023B00097F83630002B04D097F93730002B3FF4D4
:1023C000D3AE97F9373018463837BD4680BD90B543
:1023D0009DB000AF78603960002387F86F3000232C
:1023E000BB6207F12C032F220021184604F0AEF93E
:1023F0000023BB6007F10C0300221A605A609A6048
:10240000DA601A615A611A837B681B68002B0CD151
:102410007B6804331B68002B07D17B6808331B687B
:10242000002B02D1FF2387F86F3097F96F30002B14
:1024300009D107F128013B6833221D20FEF774FE05
:10244000034687F86F3097F96F30002B09D107F1F9
:1024500008013B681E225020FEF766FE034687F8FF
:102460006F30002387F86E30D4E197F86E301A464B
:102470001201134487F86D3097F86D3070333B4488
:1024800013F8482C97F86E309B0079680B441B6852
:1024900022F07F02D2B21A7097F86D3070333B444D
:1024A00013F8482C97F86E309B0079680B441B6832
:1024B00002F00F02D2B25A7097F86D305A1C97F89A
:1024C0006E309B0079680B441B6870323A4412F8F6
:1024D000482C9A7097F86D30023370333B4413F8F0
:1024E000483C1A0397F86D30033370333B4413F8BC
:1024F000483C1B01134397F86D20043270323A4474
:1025000012F8482C1209D2B21343BB6697F86D300B
:10251000053370333B4413F8483C1A0397F86D3089
:10252000063370333B4413F8483C1B01134397F8C0
:102530006D20073270323A4412F8482C1209D2B298
:1025400013437B6697F86D30083370333B4413F8C0
:10255000483C9BB21B029AB297F86D300933703336
:102560003B4413F8483C9BB21343A7F8623097F8FA
:102570006D300D3370333B4413F8483C9BB29B00E5
:102580009AB297F86D300E3370333B4413F8483CE1
:102590009B09DBB29BB21343A7F8603097F86D300C
:1025A0000F3370333B4413F8483C9BB29B009AB204
:1025B00097F86D30103370333B4413F8483C9B0957
:1025C000DBB29BB21343A7F85E3097F86D300E3341
:1025D00070333B4413F8483C03F00F0387F85D3039
:1025E00097F86D30103370333B4413F8483C03F0D8
:1025F0000F0387F85C303B689B68012B3AD197F852
:102600006E309B007A6813441B681B785AB297F8A7
:102610006D30103370333B4413F8483C5BB203F029
:1026200020035BB2134359B297F86E309B007A686F
:1026300013441B68CAB21A7097F86E309B007A6810
:1026400013441B681B785AB297F86D3010337033FF
:102650003B4413F8483C5BB203F010035BB21343F6
:1026600059B297F86E309B007A6813441B68CAB25F
:102670001A7039E097F86E309B007A6813441B6833
:102680001B785AB297F86D300E3370333B4413F811
:10269000483C5BB203F020035BB2134359B297F896
:1026A0006E309B007A6813441B68CAB21A7097F8A0
:1026B0006E309B007A6813441B681B785AB297F8F7
:1026C0006D300E3370333B4413F8483C5BB203F07B
:1026D00010035BB2134359B297F86E309B007A68CF
:1026E00013441B68CAB21A7097F86E309B007A6860
:1026F00013441B685B78194697F86E309B007A6824
:1027000013441B6801F170023A4412F8682C1A71E4
:1027100097F86E309B007A6813441B685B7803F16E
:102720000A0297F86E309B0079680B441B68703280
:102730003A4412F8682CDA7097F86E309B007A6889
:1027400013441B685B7803F1140297F86E309B000A
:1027500079680B441B6870323A4412F8682C5A713D
:1027600097F86E309B007A6813441C683968786E5D
:10277000FFF79EF8F0EE407AC4ED027A97F86E30DB
:102780009B007A6813441C683968B86EFFF716F925
:10279000F0EE407AC4ED037A97F86E309B007A68C9
:1027A00013441C68B7F8623039681846FFF748FAD6
:1027B000F0EE407AC4ED047A3B689B68012B12D19D
:1027C00097F86E309B007A6813441C6897F85C2079
:1027D000B7F85E3011461846FFF7A0FBF0EE407ADE
:1027E000C4ED057A11E097F86E309B007A681344C7
:1027F0001C6897F85D10B7F860303A681846FFF724
:10280000EBFAF0EE407AC4ED057A97F86E300133BA
:1028100087F86E3097F86E30022B04D897F96F3036
:10282000002B3FF422AE97F96F3018467437BD463F
:1028300090BD90B585B000AF03463960FB71386834
:1028400000F089F80346FB7397F90F30002B4FD146
:1028500097F90730002B02DA0023BB7301E0102345
:10286000BB733B685B7BBA7B9A4241D03B68BA7BC7
:102870005A733B681C6C3B685B6807F10D010122D1
:10288000F320A04703461A463B6883F84C203B6878
:1028900093F94C30002B01D0FE23FB7397F90F30D6
:1028A000002B25D17B7B23F01003DBB27B733B68CD
:1028B0005B7B5BB203F010035AB27B7B5BB21343CA
:1028C0005BB2DBB27B733B685C6C3B685B6807F1B7
:1028D0000D0101227320A04703461A463B6883F886
:1028E0004C203B6893F94C30002B01D0FE23FB7346
:1028F00097F90F3018461437BD4690BD80B586B0A5
:1029000000AFF8600B467A60FB72786800F023F83D
:102910000346FB75FB68002B15D097F91730002B89
:1029200011D1FB681B78FA7A9A420ED2FB68FA7AC8
:102930001A707B6893F84D3043F00103DAB27B687C
:1029400083F84D2001E0FF23FB7597F917301846F7
:102950001837BD4680BD80B485B000AF78600023D5
:10296000FB737B68002B0BD07B681B6C002B07D0A4
:102970007B685B6C002B03D07B689B6C002B01D1C8
:10298000FF23FB7397F90F3018461437BD465DF8E7
:10299000047B704790B593B000AFF8607A603B60FD
:1029A0000B46FB72002387F84730002387F8453039
:1029B0006E2387F84330A14A07F1380307CA03C3DF
:1029C0001A809E4A07F12C0307CA03C31A809B4A48
:1029D00007F1200307CA03C31A80984A07F11403BA
:1029E00007CA03C31A80FB7A032B24D0032B00F3FE
:1029F000F980012B02D0022B7CD0F3E05A2387F818
:102A00003830FB685B8839681846FFF7C1FA03461F
:102A100087F82C30642387F82030FB689B881846A1
:102A2000FFF766FB03463B757B6800221A700123A3
:102A300087F84530DBE0FB68DB68002B03D0FB68E0
:102A40009B68002B03D1FF2387F84730CFE000239A
:102A500087F846303FE097F8463097F846205A32DC
:102A6000D2B248333B4403F8102CFB689A6897F8BD
:102A700046305B0013441B8897F846403968184677
:102A8000FFF786FA03461A4604F148033B4403F86D
:102A90001C2C97F8463097F846206432D2B248335F
:102AA0003B4403F8282CFB68DA6897F846305B0053
:102AB00013441B8897F846401846FFF719FB034656
:102AC0001A4604F148033B4403F8342C97F8463087
:102AD000013387F84630FB681B7C97F846209A4202
:102AE000B9D3FB681A7C7B681A70FB681B7C87F87B
:102AF00045307CE0FB68DB68002B03D0FB689B68FB
:102B0000002B03D1FF2387F8473070E0FB685B8A16
:102B1000002B02D1032387F84730002387F8463083
:102B20003AE097F8463097F846205A32D2B2483306
:102B30003B4403F8102CFB689A6897F846305B001A
:102B400013441B8897F8464039681846FFF720FA67
:102B500003461A4604F148033B4403F81C2C97F83B
:102B6000463097F846206432D2B248333B4403F8EB
:102B7000282CFB68DA6897F846305B0013441A8803
:102B800097F84630D2B248333B4403F8342C97F8D8
:102B90004630013387F84630FB681B7C97F84620A7
:102BA0009A42BED3FB681A7C7B681A70FB681B7C58
:102BB00087F84530FB685B8A184600F041F8034609
:102BC00087F8443097F94730002B0FD107F14401C3
:102BD00007F143003B680122FEF716FA034687F827
:102BE000473003E0012387F8473000E000BF97F942
:102BF0004730002B0BD197F8452007F12C0107F146
:102C000038003B68FEF700FA034687F8473097F92B
:102C10004730002B0BD197F8452007F1140107F13D
:102C200020003B68FEF7F0F9034687F8473097F934
:102C3000473018464C37BD4690BD00BFC8B00008AD
:102C400080B485B000AF0346FB800023FB73FB8894
:102C500040F28272934202D9FF23BB731DE0FB88CE
:102C60004FF47A7203FB02F20F4BA3FB0213D21A4A
:102C7000520813441B0AFB8005E0FB889B08FB807D
:102C8000FB7B0133FB73FB883F2BF6D8FB88DAB262
:102C9000FB7B9B01DBB21344BB73BB7B1846143731
:102CA000BD465DF8047B70479FB8C81280B584B0FC
:102CB00000AF03463A60FB710B46BB71FB799B008A
:102CC0003A6813441B689B78FB81BB799B003A6888
:102CD00013441B689B78BB81FB799B003A681344C3
:102CE0001B681B785BB2002B21DABB799B003A682A
:102CF00013441B681B785BB2002B18DABA89FB8976
:102D0000D31A9BB27B81B7F90A3013F1020F03DBB0
:102D1000B7F90A30002B03DBB7F90A30022B16DDB6
:102D2000B979FB793A68184600F016F80FE0BB79DC
:102D30009B003A6813441B681B785BB2002B07DAD0
:102D4000B979FB793A68184600F006F800E000BF50
:102D500000BF1037BD4680BD80B485B000AF0346CC
:102D60003A60FB710B46BB71FB799B003A681344D8
:102D70001B68FB60BB799B003A681A44FB799B0097
:102D800039680B4412681A60BB799B003A68134497
:102D9000FA681A6000BF1437BD465DF8047B7047BF
:102DA00080B588B002AFB9607A603B600346FB73C0
:102DB0003B681B78FB7507F10F02C82300930123C2
:102DC00076210E4801F024FB0346002B02D04FF081
:102DD000FF330FE07B689BB2C8220092BA6876216D
:102DE000064801F013FC0346002B02D04FF0FF33DE
:102DF00000E0002318461837BD4680BD6002002061
:102E00002DE9F0438BB002AFB9607A603B600346B6
:102E1000FB736B461E463B681B78FB767B68591C30
:102E20000B46013B7B610023884699464FF0000228
:102E30004FF000034FEAC90343EA58734FEAC80250
:102E400000230C461D464FF000024FF00003EB003C
:102E500043EA5473E200CB1DDB08DB00ADEB030D4E
:102E600002AB00333B613B69FA7B1A700023FB61C4
:102E70000AE0FB69BA681A44FB69013311783A69C0
:102E8000D154FB690133FB61FB697A689A42F0D83F
:102E90007B689BB201339BB2C82200923A697621CB
:102EA000074801F0B5FA0346002B02D04FF0FF337C
:102EB00000E00023B54618462437BD46BDE8F08340
:102EC0006002002080B582B000AF78600B46FB70D6
:102ED00097F903300533072B00F28F8001A252F8D7
:102EE00023F000BFB32F00086B2F00088F2F0008BE
:102EF000472F0008232F0008052F0008FB2F00088C
:102F0000D72F00084849494804F0A8FA4748FDF778
:102F100067F903469AB2C8234449454803F069F863
:102F20007DE097F903307A684249404804F096FA08
:102F30003E48FDF755F903469AB2C8233B493C4841
:102F400003F057F86BE097F903307A683A4937484D
:102F500004F084FA3548FDF743F903469AB2C823D2
:102F60003249334803F045F859E097F903307A685D
:102F700032492E4804F072FA2C48FDF731F9034625
:102F80009AB2C82329492A4803F033F847E097F951
:102F900003307A682A49254804F060FA2348FDF78F
:102FA0001FF903469AB2C8232049214803F021F8AB
:102FB00035E097F903307A6822491C4804F04EFA4C
:102FC0001A48FDF70DF903469AB2C8231749184865
:102FD00003F00FF823E097F903307A681A49134891
:102FE00004F03CFA1148FDF7FBF803469AB2C823F7
:102FF0000E490F4802F0FDFF11E097F903307A689F
:1030000012490A4804F02AFA0848FDF7E9F803468D
:103010009AB2C8230549064802F0EBFF00BF00BF83
:103020000837BD4680BD00BFD4B00008FC010020B9
:10303000FC020020D8B0000804B1000838B1000834
:1030400074B10008A4B10008D4B1000808B20008A7
:1030500080B483B000AF78603960094B1B680022F0
:103060005A6200BF064B1B685B6A7A689A42F9D8BD
:1030700000BF00BF0C37BD465DF8047B704700BF42
:10308000B402002082B080B584B000AF786007F150
:10309000180080E80C000B46FB700023FB731F4BED
:1030A000184607F118035422194603F041FB1C4B44
:1030B000184607F16C034822194603F039FB194BF7
:1030C000184607F1B4034422194603F031FB7B682C
:1030D000002B18D0144B76221A707B68134A1A649E
:1030E0007B68134A5A647B6801221A73C82000F077
:1030F00089FD7B680F4A9A647B680B4A5A607B683B
:1031000019229A7301E0FF23FB7397F90F301846D9
:103110001037BD46BDE8804002B070476002002015
:10312000B4020020FC02002040030020A12D000872
:10313000012E0008513000082DE9F04FDDB036AF08
:1031400000F0EEFC00F02AF900F078FA00F084F9C3
:1031500000F0B0F900F048FA00F0F8F94FF400512F
:10316000824800F0F6FF41F2883000F04BFD8048C5
:1031700002F048FC0023C7F890300123A7F89630EE
:103180007C4C07F138057C4A25AB11464422184691
:1031900003F0CEFA764A13AB11464822184603F0E4
:1031A000C7FA684604F108034C22194603F0C0FA36
:1031B00094E80C0001212846FFF764FF034687F8D6
:1031C0008F3097F98F3019466C48FFF77BFE00234C
:1031D00087F83330082387F83430052387F83030F8
:1031E000012387F83230022387F8313007F13802A3
:1031F00007F1300311461846FDF7DAFF034687F85A
:103200008F3097F98F3019465D48FFF75BFE012339
:103210003B774FF49673FB8364233B8407F13802BA
:1032200007F11C0319460120FEF7BAFA034687F896
:103230008F3097F98F3019465248FFF743FE5249B5
:10324000524804F00BF95148FCF7CAFF03469AB202
:10325000C8234E49484802F0CCFE7AE04FF40051B2
:10326000424800F076FF07F1380319460120FEF7C7
:10327000A3F8034687F88F3097F98F3019464448F2
:10328000FFF720FE07F1380207F13003194601204D
:10329000FEF714F903463A8C11464FF47A7201FB9B
:1032A00002F21344C7F88830D7F88030FA6B114621
:1032B000D7F88800984707F13803FA1C391D012018
:1032C000FEF770F9034687F88F3097F98F3019466B
:1032D0003048FFF7F7FDB7F89660FB681846FDF732
:1032E0003BF904460D463B691846FDF735F9804623
:1032F00089467B691846FDF72FF982468B46BB69E4
:103300001846FDF729F902460B4639790891CDE9AF
:103310000623CDE904ABCDE90289CDE90045D7F814
:10332000903032461C49194804F098F81748FCF7C9
:1033300057FF03469AB2C82314490F4802F059FEBA
:10334000B7F896300133A7F896304FF4FA7000F0D2
:1033500059FCB7F89630B3F5967F7FF67FAF002320
:1033600018469C37BD46BDE8F08F00BF00080240FC
:103370009803002044030020280400203CB20008E9
:1033800054B2000864B200087CB200086C0400204B
:10339000E0B20008F4B2000804B3000880B594B0AD
:1033A00000AF07F1200330220021184603F0CEF9C8
:1033B00007F10C0300221A605A609A60DA601A6101
:1033C0000023BB60224B1B6C214A43F080531364E3
:1033D0001F4B1B6C03F08053BB60BB6800237B60FA
:1033E0001C4B1B681B4A43F440431360194B1B687A
:1033F00003F440437B607B6802233B620123FB6252
:1034000010233B630023BB6307F12003184601F040
:1034100051FE0346002B01D000F062F90F23FB6040
:1034200000233B6100237B610023BB610023FB6120
:1034300007F10C030021184602F0B4F80346002BF4
:1034400001D000F04DF900BF5037BD4680BD00BF30
:10345000003802400070004080B500AF124B134AA4
:103460001A60114B124A5A600F4B00229A600E4BA1
:103470000022DA600C4B4FF480421A610A4B0022A2
:103480005A61094B00229A61074B0022DA61064B10
:1034900000221A62044800F077FE0346002B01D098
:1034A00000F01EF900BF80BD44030020005400401E
:1034B000A086010080B586B000AF07F108030022A6
:1034C0001A605A609A60DA603B4600221A605A60BD
:1034D0001D4B4FF080421A601B4B0F225A601A4B53
:1034E00000229A60184B4FF0FF32DA60164B002230
:1034F0001A61154B00229A61134802F033FA034611
:10350000002B01D000F0ECF84FF48053BB6007F1C2
:10351000080319460C4802F0CFFA0346002B01D0ED
:1035200000F0DEF800233B6000237B603B46194639
:10353000054802F0A3FC0346002B01D000F0D0F8B0
:1035400000BF1837BD4680BD9803002080B586B007
:1035500000AF07F1080300221A605A609A60DA602F
:103560003B4600221A605A601D4B1E4A1A601C4BD3
:1035700000225A601A4B00229A60194B4FF6FF72D4
:10358000DA60174B00221A61154B00229A61144829
:1035900002F0E8F90346002B01D000F0A1F84FF447
:1035A0008053BB6007F1080319460D4802F084FA06
:1035B0000346002B01D000F093F800233B6000236A
:1035C0007B603B461946064802F058FC0346002B38
:1035D00001D000F085F800BF1837BD4680BD00BFA0
:1035E000E00300200004004080B500AF114B124AF8
:1035F0001A60104B4FF4E1325A600E4B00229A6071
:103600000C4B0022DA600B4B00221A61094B0C2292
:103610005A61084B00229A61064B0022DA61054884
:1036200002F09AFC0346002B01D000F059F800BFCD
:1036300080BD00BF280400200010014080B588B084
:1036400000AF07F10C0300221A605A609A60DA603A
:103650001A610023BB60204B1B6B1F4A43F004031D
:1036600013631D4B1B6B03F00403BB60BB6800239B
:103670007B60194B1B6B184A43F001031363164B15
:103680001B6B03F001037B607B6800233B60124BE4
:103690001B6B114A43F0020313630F4B1B6B03F0C8
:1036A00002033B603B6800224FF400510B4800F0DE
:1036B00037FD4FF40053FB6001233B6100237B6126
:1036C0000023BB6107F10C031946044800F0A4FB7A
:1036D00000BF2037BD4680BD0038024000080240D0
:1036E00080B400AF72B600BFFEE7000080B483B0C4
:1036F00000AF00237B60104B5B6C0F4A43F48043A8
:1037000053640D4B5B6C03F480437B607B68002348
:103710003B60094B1B6C084A43F080531364064B13
:103720001B6C03F080533B603B6800BF0C37BD4609
:103730005DF8047B704700BF0038024080B58AB056
:1037400000AF786007F1140300221A605A609A6093
:10375000DA601A617B681B68194A93422BD10023F7
:103760003B61184B1B6B174A43F002031363154B65
:103770001B6B03F002033B613B69C0237B61122397
:10378000BB610023FB6103233B6204237B6207F1DF
:10379000140319460C4800F03FFB0023FB60094B63
:1037A0001B6C084A43F400131364064B1B6C03F4B0
:1037B0000013FB60FB6800BF2837BD4680BD00BF1B
:1037C00000540040003802400004024080B485B03C
:1037D00000AF78607B681B68B3F1804F0ED1002387
:1037E000FB60134B1B6C124A43F001031364104B34
:1037F0001B6C03F00103FB60FB6812E07B681B6835
:103800000C4A93420DD10023BB60094B1B6C084A44
:1038100043F002031364064B1B6C03F00203BB600E
:10382000BB6800BF1437BD465DF8047B704700BF1E
:10383000003802400004004080B58AB000AF7860D4
:1038400007F1140300221A605A609A60DA601A6164
:103850007B681B68194A93422CD100233B61184BAB
:103860005B6C174A43F010035364154B5B6C03F019
:1038700010033B613B690023FB60114B1B6B104A3B
:1038800043F0010313630E4B1B6B03F00103FB605A
:10389000FB684FF4C0637B610223BB610023FB61C3
:1038A00003233B6207237B6207F114031946054893
:1038B00000F0B2FA00BF2837BD4680BD00100140BD
:1038C000003802400000024080B400AFFEE780B440
:1038D00000AFFEE780B400AFFEE780B400AFFEE7C4
:1038E00080B400AFFEE780B400AF00BFBD465DF816
:1038F000047B704780B400AF00BFBD465DF8047B19
:10390000704780B400AF00BFBD465DF8047B7047D0
:1039100080B500AF00F056F900BF80BD80B400AFA5
:1039200001231846BD465DF8047B704780B582B020
:1039300000AF7860396002F0D1FE034616221A60AB
:103940004FF0FF3318460837BD4680BD80B582B0C2
:1039500000AF78604FF0FF317868FFF7E7FFFEE7D0
:1039600080B586B000AFF860B9607A6000237B61F3
:103970000AE0AFF300800146BB685A1CBA60CAB2C5
:103980001A707B6901337B617A697B689A42F0DB4C
:103990007B6818461837BD4680BD80B586B000AF3D
:1039A000F860B9607A6000237B6109E0BB685A1C4B
:1039B000BA601B781846AFF300807B6901337B61E6
:1039C0007A697B689A42F1DB7B6818461837BD46F6
:1039D00080BD80B483B000AF78604FF0FF331846ED
:1039E0000C37BD465DF8047B704780B483B000AFF0
:1039F000786039603B684FF400525A6000231846E3
:103A00000C37BD465DF8047B704780B483B000AFCF
:103A10007860012318460C37BD465DF8047B70477B
:103A200080B485B000AFF860B9607A6000231846B2
:103A30001437BD465DF8047B7047000080B586B042
:103A400000AF7860144A154BD31A7B617B693B61E8
:103A5000134B1B68002B02D1114B124A1A60104BFA
:103A60001A687B6813443A699A4207D202F036FE1C
:103A700003460C221A604FF0FF3309E0084B1B6825
:103A8000FB60074B1A687B681344054A1360FB68A8
:103A900018461837BD4680BD000002200004000013
:103AA000D0040020E804002080B400AF064BD3F817
:103AB0008830054A43F47003C2F8883000BFBD4621
:103AC0005DF8047B704700BF00ED00E0DFF834D004
:103AD0000D480E490E4A002302E0D458C450043366
:103AE000C4188C42F9D30B4A0B4C002301E013603D
:103AF0000432A242FBD3FFF7D7FF02F0F5FDFFF738
:103B00001BFB70470000022000000020E0010020A5
:103B1000FCB70008E0010020E8040020FEE70000F8
:103B200080B500AF0E4B1B680D4A43F40073136061
:103B30000B4B1B680A4A43F480631360084B1B68F5
:103B4000074A43F480731360032000F031F90F201B
:103B500000F008F8FFF7CAFD0023184680BD00BF3B
:103B6000003C024080B582B000AF7860124B1A680A
:103B7000124B1B7819464FF47A73B3FBF1F3B2FB87
:103B8000F3F3184600F03BF90346002B01D0012364
:103B90000EE07B680F2B0AD8002279684FF0FF30C7
:103BA00000F011F9064A7B681360002300E001234E
:103BB00018460837BD4680BD0000002008000020E0
:103BC0000400002080B400AF064B1B781A46064B59
:103BD0001B681344044A136000BFBD465DF8047BB4
:103BE000704700BF08000020D404002080B400AF5C
:103BF000034B1B681846BD465DF8047B704700BF49
:103C0000D404002080B584B000AF7860FFF7EEFFE9
:103C1000B8607B68FB60FB68B3F1FF3F05D00A4BDF
:103C20001B781A46FB681344FB6000BFFFF7DEFFFA
:103C30000246BB68D31AFA689A42F7D800BF00BFA1
:103C40001037BD4680BD00BF0800002080B485B09D
:103C500000AF78607B6803F00703FB600C4BDB6808
:103C6000BB60BA684FF6FF031340BB60FB681A02E3
:103C7000BB68134343F0BF6343F40033BB60044AA3
:103C8000BB68D36000BF1437BD465DF8047B704746
:103C900000ED00E080B400AF044BDB681B0A03F0CA
:103CA00007031846BD465DF8047B704700ED00E051
:103CB00080B483B000AF03463960FB7197F90730D9
:103CC000002B0ADB3B68DAB20C4997F90730120186
:103CD000D2B20B4483F800230AE03B68DAB2084909
:103CE000FB7903F00F03043B1201D2B20B441A76A6
:103CF00000BF0C37BD465DF8047B704700E100E073
:103D000000ED00E080B489B000AFF860B9607A607F
:103D1000FB6803F00703FB61FB69C3F10703042B96
:103D200028BF0423BB61FB690433062B02D9FB695E
:103D3000033B00E000237B614FF0FF32BB6902FAD6
:103D400003F3DA43BB681A407B699A404FF0FF31B6
:103D50007B6901FA03F3D9437B680B401343184690
:103D60002437BD465DF8047B7047000080B582B003
:103D700000AF78607B68013BB3F1807F01D3012302
:103D80000FE00A4A7B68013B53600F214FF0FF3080
:103D9000FFF78EFF054B00229A60044B07221A6042
:103DA000002318460837BD4680BD00BF10E000E084
:103DB00080B582B000AF78607868FFF747FF00BF3A
:103DC0000837BD4680BD80B586B000AF0346B960F8
:103DD0007A60FB7300237B61FFF75CFF78617A6890
:103DE000B9687869FFF78EFF024697F90F301146E0
:103DF0001846FFF75DFF00BF1837BD4680BD80B590
:103E000082B000AF78607868FFF7B0FF03461846CD
:103E10000837BD4680BD000080B489B000AF78602F
:103E2000396000237B6100233B610023BB610023D9
:103E3000FB6159E10122FB6902FA03F37B613B68F4
:103E40001B687A6913403B613A697B699A4240F08A
:103E500048813B685B6803F00303012B05D03B6896
:103E60005B6803F00303022B30D17B689B68BB6166
:103E7000FB695B00032202FA03F3DB43BA691340D8
:103E8000BB613B68DA68FB695B0002FA03F3BA695D
:103E90001343BB617B68BA699A607B685B68BB61EE
:103EA0000122FB6902FA03F3DB43BA691340BB61E9
:103EB0003B685B681B0903F00102FB6902FA03F32C
:103EC000BA691343BB617B68BA695A603B685B6837
:103ED00003F00303032B17D07B68DB68BB61FB692E
:103EE0005B00032202FA03F3DB43BA691340BB61B0
:103EF0003B689A68FB695B0002FA03F3BA691343F3
:103F0000BB617B68BA69DA603B685B6803F00303F6
:103F1000022B23D1FB69DA087B68083253F8223080
:103F2000BB61FB6903F007039B000F2202FA03F356
:103F3000DB43BA691340BB613B681A69FB6903F054
:103F400007039B0002FA03F3BA691343BB61FB69E1
:103F5000DA087B680832B96943F822107B681B686D
:103F6000BB61FB695B00032202FA03F3DB43BA691E
:103F70001340BB613B685B6803F00302FB695B00B5
:103F800002FA03F3BA691343BB617B68BA691A602A
:103F90003B685B6803F44033002B00F0A2800023F1
:103FA000FB60574B5B6C564A43F480435364544B5D
:103FB0005B6C03F48043FB60FB68524AFB699B081F
:103FC000023352F82330BB61FB6903F003039B000B
:103FD0000F2202FA03F3DB43BA691340BB617B682B
:103FE000494A934219D07B68484A934213D07B6870
:103FF000474A93420DD07B68464A934207D07B687C
:10400000454A934201D1042308E0072306E0032335
:1040100004E0022302E0012300E00023FA6902F039
:10402000030292009340BA691343BB613549FB69AF
:104030009B080233BA6941F82320384B9B68BB6167
:104040003B69DB43BA691340BB613B685B6803F4BF
:104050008013002B03D0BA693B691343BB612F4A1D
:10406000BB6993602D4BDB68BB613B69DB43BA697D
:104070001340BB613B685B6803F40013002B03D063
:10408000BA693B691343BB61244ABB69D360234BC4
:104090005B68BB613B69DB43BA691340BB613B684A
:1040A0005B6803F40033002B03D0BA693B69134308
:1040B000BB611A4ABB695360184B1B68BB613B6903
:1040C000DB43BA691340BB613B685B6803F4803330
:1040D000002B03D0BA693B691343BB610F4ABB692C
:1040E0001360FB690133FB61FB690F2B7FF6A2AE06
:1040F00000BF00BF2437BD465DF8047B704700BF9A
:104100000038024000380140000002400004024034
:1041100000080240000C024000100240003C014038
:1041200080B483B000AF78600B467B8013467B7011
:104130007B78002B03D07A887B689A6103E07B88C8
:104140001A047B689A6100BF0C37BD465DF8047B9A
:10415000704780B485B000AF78600B467B807B6889
:104160005B69FB607A88FB6813401A04FB68D943DB
:104170007B880B401A437B689A6100BF1437BD46A9
:104180005DF8047B7047000080B584B000AF7860B4
:104190007B68002B01D101232BE17B6893F83D3034
:1041A000DBB2002B06D17B68002283F83C207868C4
:1041B000FFF7C4FA7B68242283F83D207B681B68E4
:1041C0001A687B681B6822F001021A607B681B6812
:1041D0001A687B681B6842F400421A607B681B689F
:1041E0001A687B681B6822F400421A6001F092FB97
:1041F000F8607B685B68814A934207D8FB68804A15
:10420000934294BF01230023DBB206E0FB687D4AA2
:10421000934294BF01230023DBB2002B01D0012382
:10422000E7E0FB68784AA2FB03239B0CBB607B683A
:104230001B685B6823F03F017B681B68BA680A4310
:104240005A607B681B681B6A23F03F017B685B68D0
:104250006A4A934202D8BB68013309E0BB684FF455
:10426000967202FB03F3694AA2FB03239B09013305
:104270007A6812680B4313627B681B68DB6923F45E
:104280004F4222F0FF027B685B685C498B4219D881
:10429000FB68591E7B685B685B00B1FBF3F3591C3C
:1042A00040F6FC730B40002B0AD0FB68591E7B685C
:1042B0005B685B00B1FBF3F30133C3F30B0351E025
:1042C00004234FE07B689B68002B11D1FB68581ECC
:1042D0007B6859680B465B000B44B0FBF3F301337A
:1042E000C3F30B03002B0CBF01230023DBB212E04E
:1042F000FB68581E7B6859680B469B000B4499006D
:104300000B44B0FBF3F30133C3F30B03002B0CBFDF
:1043100001230023DBB2002B01D0012322E07B68C4
:104320009B68002B0ED1FB68581E7B6859680B46B2
:104330005B000B44B0FBF3F30133C3F30B0343F413
:1043400000430FE0FB68581E7B6859680B469B00D2
:104350000B4499000B44B0FBF3F30133C3F30B039D
:1043600043F44043796809681343CB617B681B6859
:104370001B6823F0C0017B68DA697B681B6A1A43FB
:104380007B681B680A431A607B681B689B6823F480
:10439000034323F0FF037A6811697A68D2681143F6
:1043A0007A6812680B4393607B681B68DB6823F0B4
:1043B000FF017B685A697B689B691A437B681B68AD
:1043C0000A43DA607B681B681A687B681B6842F0E6
:1043D00001021A607B6800221A647B68202283F83D
:1043E0003D207B6800221A637B68002283F83E2010
:1043F000002318461037BD4680BD00BFA0860100CF
:104400007F841E00FF083D0083DE1B43D34D6210F6
:1044100080B588B002AFF8607A601A460B467B819F
:1044200013463B81FFF7E2FB7861FB6893F83D3070
:10443000DBB2202B40F0E0807B690093192301223E
:104440007049F86800F058FC0346002B01D00223A5
:10445000D3E0FB6893F83C30012B01D10223CCE080
:10446000FB68012283F83C20FB681B681B6803F093
:104470000103012B07D0FB681B681A68FB681B68E7
:1044800042F001021A60FB681B681A68FB681B682F
:1044900022F400621A60FB68212283F83D20FB6849
:1044A000102283F83E20FB6800221A64FB687A68B9
:1044B0005A62FB683A895A85FB685B8D9AB2FB6841
:1044C0001A85FB68504ADA6279897B693A6AF8682A
:1044D00000F0C2FA0346002B01D001238DE0002337
:1044E0003B61FB681B685B693B61FB681B689B6900
:1044F0003B613B6966E07A69396AF86800F0D2FC92
:104500000346002B0DD0FB681B6C042B07D1FB6806
:104510001B681A68FB681B6842F400721A6001236A
:104520006BE0FB685B6A1A78FB681B681A61FB68C2
:104530005B6A5A1CFB685A62FB685B8D9BB2013B4D
:104540009AB2FB685A85FB681B8D013B9AB2FB68E7
:104550001A85FB681B685B6903F00403042B1BD1FD
:10456000FB681B8D002B17D0FB685B6A1A78FB6811
:104570001B681A61FB685B6A5A1CFB685A62FB681D
:104580005B8D9BB2013B9AB2FB685A85FB681B8D21
:10459000013B9AB2FB681A857A69396AF86800F0BB
:1045A000C2FC0346002B0DD0FB681B6C042B07D10B
:1045B000FB681B681A68FB681B6842F400721A608B
:1045C00001231AE0FB681B8D002B94D1FB681B684C
:1045D0001A68FB681B6842F400721A60FB682022AC
:1045E00083F83D20FB68002283F83E20FB68002210
:1045F00083F83C20002300E0022318461837BD460C
:1046000080BD00BF020010000000FFFF80B58CB02D
:1046100002AFF8607A601A460B467B8113463B81F5
:10462000FFF7E4FA7862FB6893F83D30DBB2202BA9
:1046300040F00B827B6A0093192301227C49F868C1
:1046400000F05AFB0346002B01D00223FEE1FB6879
:1046500093F83C30012B01D10223F7E1FB680122E2
:1046600083F83C20FB681B681B6803F00103012BE7
:1046700007D0FB681B681A68FB681B6842F00102E0
:104680001A60FB681B681A68FB681B6822F40062EA
:104690001A60FB68222283F83D20FB68102283F811
:1046A0003E20FB6800221A64FB687A685A62FB6845
:1046B0003A895A85FB685B8D9AB2FB681A85FB685C
:1046C0005C4ADA6279897B6A3A6BF86800F046FAEC
:1046D0000346002B01D00123B8E1FB681B8D002BA2
:1046E00013D100233B62FB681B685B693B62FB687C
:1046F0001B689B693B623B6AFB681B681A68FB6826
:104700001B6842F400721A608CE1FB681B8D012B60
:104710001BD1FB681B681A68FB681B6822F4806267
:104720001A600023FB61FB681B685B69FB61FB6827
:104730001B689B69FB61FB69FB681B681A68FB6867
:104740001B6842F400721A606CE1FB681B8D022B3F
:104750001BD1FB681B681A68FB681B6822F4806227
:104760001A60FB681B681A68FB681B6842F40062E9
:104770001A600023BB61FB681B685B69BB61FB6857
:104780001B689B69BB61BB694CE1FB681B681A68CD
:10479000FB681B6842F480621A6000237B61FB683F
:1047A0001B685B697B61FB681B689B697B617B693C
:1047B00038E1FB681B8D032B00F2F180FB681B8D39
:1047C000012B23D17A6A396BF86800F0EDFB0346C0
:1047D000002B01D0012339E1FB681B681A69FB68D3
:1047E0005B6AD2B21A70FB685B6A5A1CFB685A6239
:1047F000FB681B8D013B9AB2FB681A85FB685B8DD9
:104800009BB2013B9AB2FB685A850BE1FB681B8D9A
:10481000022B4ED17B6A00933B6B00220649F8685D
:1048200000F06AFA0346002B08D001230EE100BF16
:10483000020010000000FFFF04000100FB681B687D
:104840001A68FB681B6842F400721A60FB681B68F8
:104850001A69FB685B6AD2B21A70FB685B6A5A1C01
:10486000FB685A62FB681B8D013B9AB2FB681A8594
:10487000FB685B8D9BB2013B9AB2FB685A85FB6873
:104880001B681A69FB685B6AD2B21A70FB685B6AC4
:104890005A1CFB685A62FB681B8D013B9AB2FB688D
:1048A0001A85FB685B8D9BB2013B9AB2FB685A8507
:1048B000B8E07B6A00933B6B00226649F86800F021
:1048C0001BFA0346002B01D00123BFE0FB681B68E5
:1048D0001A68FB681B6822F480621A60FB681B6818
:1048E0001A69FB685B6AD2B21A70FB685B6A5A1C71
:1048F000FB685A62FB681B8D013B9AB2FB681A8504
:10490000FB685B8D9BB2013B9AB2FB685A857B6A60
:1049100000933B6B00224F49F86800F0EDF9034625
:10492000002B01D0012391E0FB681B681A68FB682B
:104930001B6842F400721A60FB681B681A69FB6806
:104940005B6AD2B21A70FB685B6A5A1CFB685A62D7
:10495000FB681B8D013B9AB2FB681A85FB685B8D77
:104960009BB2013B9AB2FB685A85FB681B681A69C7
:10497000FB685B6AD2B21A70FB685B6A5A1CFB6800
:104980005A62FB681B8D013B9AB2FB681A85FB6873
:104990005B8D9BB2013B9AB2FB685A8542E07A6A12
:1049A000396BF86800F000FB0346002B01D00123AF
:1049B0004CE0FB681B681A69FB685B6AD2B21A702C
:1049C000FB685B6A5A1CFB685A62FB681B8D013BE3
:1049D0009AB2FB681A85FB685B8D9BB2013B9AB269
:1049E000FB685A85FB681B685B6903F00403042BB2
:1049F00018D1FB681B681A69FB685B6AD2B21A702F
:104A0000FB685B6A5A1CFB685A62FB681B8D013BA2
:104A10009AB2FB681A85FB685B8D9BB2013B9AB228
:104A2000FB685A85FB681B8D002B7FF4C2AEFB68C8
:104A3000202283F83D20FB68002283F83E20FB689B
:104A4000002283F83C20002300E002231846283788
:104A5000BD4680BD0400010080B588B002AFF8609B
:104A60007A603B600B467B81FB68DB6A7B617B691C
:104A7000082B06D07B69012B03D07B6913F5803F9F
:104A800008D1FB681B681A68FB681B6842F48072D7
:104A90001A600BE0FB681B6B122B07D1FB681B68CD
:104AA0001A68FB681B6842F480721A603B680093C6
:104AB0007B6800224FF00111F86800F01DF90346F1
:104AC000002B0DD0FB681B681B6803F48073B3F5E3
:104AD000807F03D1FB684FF400721A64032335E032
:104AE000FB681B69B3F5804F08D17B89DBB21A469E
:104AF000FB681B6802F0FE021A611BE07B89DB1178
:104B0000DBB203F00603DBB263F00F03DAB2FB683B
:104B10001B681A613B687A680E49F86800F043F92F
:104B20000346002B01D0012310E07B89DAB2FB6839
:104B30001B681A613B687A680749F86800F033F926
:104B40000346002B01D0012300E00023184618374C
:104B5000BD4680BD080001000200010080B588B09C
:104B600002AFF8607A603B600B467B81FB68DB6AD2
:104B70007B61FB681B681A68FB681B6842F48062F3
:104B80001A607B69082B06D07B69012B03D07B69F7
:104B900013F5803F08D1FB681B681A68FB681B6827
:104BA00042F480721A600BE0FB681B6B112B07D17B
:104BB000FB681B681A68FB681B6842F480721A6005
:104BC0003B6800937B6800224FF00111F86800F009
:104BD00093F80346002B0DD0FB681B681B6803F499
:104BE0008073B3F5807F03D1FB684FF400721A64C1
:104BF000032379E0FB681B69B3F5804F08D17B89FB
:104C0000DBB243F00103DAB2FB681B681A615FE0B4
:104C10007B89DB11DBB203F00603DBB263F00F0329
:104C2000DAB2FB681B681A613B687A683049F86839
:104C300000F0B9F80346002B01D0012354E07B8932
:104C4000DAB2FB681B681A613B687A682949F86820
:104C500000F0A9F80346002B01D0012344E0002313
:104C60003B61FB681B685B693B61FB681B689B6978
:104C70003B613B69FB681B681A68FB681B6842F470
:104C800080721A603B6800937B6800224FF001112C
:104C9000F86800F031F80346002B0DD0FB681B6864
:104CA0001B6803F48073B3F5807F03D1FB684FF476
:104CB00000721A64032317E07B89DB11DBB203F077
:104CC0000603DBB263F00E03DAB2FB681B681A61FD
:104CD0003B687A680749F86800F065F80346002BDE
:104CE00001D0012300E0002318461837BD4680BDDF
:104CF000080001000200010080B584B000AFF86038
:104D0000B9603B601346FB7125E03B68B3F1FF3FA0
:104D100021D0FEF76BFF0246BB69D31A3A689A426C
:104D200002D33B68002B16D1FB6800221A63FB6894
:104D3000202283F83D20FB68002283F83E20FB6898
:104D40001B6C43F02002FB681A64FB68002283F8A6
:104D50003C20012323E0BB681B0CDBB2012B0DD1EF
:104D6000FB681B685B69DA43BB6813409BB2002B8E
:104D70000CBF01230023DBB21A460CE0FB681B6862
:104D80009B69DA43BB6813409BB2002B0CBF012325
:104D90000023DBB21A46FB799A42B6D000231846AC
:104DA0001037BD4680BD80B584B000AFF860B960F3
:104DB0007A603B6051E0FB681B685B6903F48063C9
:104DC000B3F5806F23D1FB681B681A68FB681B680A
:104DD00042F400721A60FB681B686FF480625A61CB
:104DE000FB6800221A63FB68202283F83D20FB68E1
:104DF000002283F83E20FB681B6C43F00402FB6832
:104E00001A64FB68002283F83C20012346E07B689B
:104E1000B3F1FF3F21D0FEF7E9FE02463B68D31A0B
:104E20007A689A4202D37B68002B16D1FB68002275
:104E30001A63FB68202283F83D20FB68002283F878
:104E40003E20FB681B6C43F02002FB681A64FB6881
:104E5000002283F83C20012320E0BB681B0CDBB25E
:104E6000012B0CD1FB681B685B69DA43BB681340FC
:104E70009BB2002B14BF01230023DBB20BE0FB68C5
:104E80001B689B69DA43BB6813409BB2002B14BFBD
:104E900001230023DBB2002B8DD1002318461037ED
:104EA000BD4680BD80B584B000AFF860B9607A605F
:104EB0002DE0F86800F0CEF80346002B01D0012366
:104EC0002DE0BB68B3F1FF3F21D0FEF78FFE024615
:104ED0007B68D31ABA689A4202D3BB68002B16D1FA
:104EE000FB6800221A63FB68202283F83D20FB68E0
:104EF000002283F83E20FB681B6C43F02002FB6815
:104F00001A64FB68002283F83C20012307E0FB6859
:104F10001B685B6903F08003802BCAD1002318460D
:104F20001037BD4680BD80B584B000AFF860B96071
:104F30007A602DE0F86800F08DF80346002B01D070
:104F400001232DE0BB68B3F1FF3F21D0FEF74EFEF9
:104F500002467B68D31ABA689A4202D3BB68002B18
:104F600016D1FB6800221A63FB68202283F83D20DB
:104F7000FB68002283F83E20FB681B6C43F0200294
:104F8000FB681A64FB68002283F83C20012307E0D9
:104F9000FB681B685B6903F00403042BCAD1002380
:104FA00018461037BD4680BD80B584B000AFF860AC
:104FB000B9607A6042E0FB681B685B6903F010032C
:104FC000102B19D1FB681B686FF010025A61FB6847
:104FD00000221A63FB68202283F83D20FB68002230
:104FE00083F83E20FB681A6CFB681A64FB68002299
:104FF00083F83C20012329E0FEF7F8FD02467B6898
:10500000D31ABA689A4202D3BB68002B16D1FB6848
:1050100000221A63FB68202283F83D20FB680022EF
:1050200083F83E20FB681B6C43F02002FB681A6487
:10503000FB68002283F83C20012307E0FB681B6823
:105040005B6903F04003402BB5D1002318461037AD
:10505000BD4680BD80B483B000AF78607B681B68BC
:105060005B6903F48063B3F5806F1BD17B681B68B9
:105070006FF480625A617B6800221A637B68202289
:1050800083F83D207B68002283F83E207B681B6C00
:1050900043F004027B681A647B68002283F83C209A
:1050A000012300E0002318460C37BD465DF8047B61
:1050B0007047000080B586B000AF78607B68002B39
:1050C00001D1012367E27B681B6803F00103002B19
:1050D00075D0884B9B6803F00C03042B0CD0854BD8
:1050E0009B6803F00C03082B12D1824B5B6803F41E
:1050F0008003B3F5800F0BD17E4B1B6803F40033A4
:10510000002B5BD07B685B68002B57D1012342E208
:105110007B685B68B3F5803F06D1764B1B68754AA8
:1051200043F4803313601DE07B685B68B3F5A02F08
:105130000CD1704B1B686F4A43F4802313606D4B96
:105140001B686C4A43F4803313600BE0694B1B68A7
:10515000684A23F480331360664B1B68654A23F466
:10516000802313607B685B68002B13D0FEF73EFD45
:10517000386108E0FEF73AFD02463B69D31A642B1A
:1051800001D9032307E25B4B1B6803F40033002BB8
:10519000F0D014E0FEF72AFD386108E0FEF726FDA6
:1051A00002463B69D31A642B01D90323F3E1514B27
:1051B0001B6803F40033002BF0D100E000BF7B68D4
:1051C0001B6803F00203002B63D04A4B9B6803F07B
:1051D0000C03002B0BD0474B9B6803F00C03082BF0
:1051E0001CD1444B5B6803F48003002B16D1414B68
:1051F0001B6803F00203002B05D07B68DB68012BE2
:1052000001D00123C7E13B4B1B6823F0F8027B6808
:105210001B69DB00374913430B603AE07B68DB68AE
:10522000002B20D0344B01221A60FEF7DFFC3861DE
:1052300008E0FEF7DBFC02463B69D31A022B01D9DA
:105240000323A8E12B4B1B6803F00203002BF0D0D3
:10525000284B1B6823F0F8027B681B69DB0025499B
:1052600013430B6015E0244B00221A60FEF7BEFCCE
:10527000386108E0FEF7BAFC02463B69D31A022BFC
:1052800001D9032387E11B4B1B6803F00203002BAA
:10529000F0D17B681B6803F00803002B36D07B68D5
:1052A0005B69002B16D0154B01221A60FEF79EFC9D
:1052B000386108E0FEF79AFC02463B69D31A022BDC
:1052C00001D9032367E10B4B5B6F03F00203002B53
:1052D000F0D01BE0094B00221A60FEF787FC386112
:1052E0000EE0FEF783FC02463B69D31A022B07D976
:1052F000032350E10038024000004742800E47423D
:10530000884B5B6F03F00203002BEAD17B681B68BC
:1053100003F00403002B00F097800023FB75814B02
:105320001B6C03F08053002B0FD10023BB607D4B1F
:105330001B6C7C4A43F0805313647A4B1B6C03F064
:105340008053BB60BB680123FB75774B1B6803F47C
:105350008073002B18D1744B1B68734A43F480731D
:105360001360FEF743FC386108E0FEF73FFC02469D
:105370003B69D31A022B01D903230CE16A4B1B684A
:1053800003F48073002BF0D07B689B68012B06D15F
:10539000644B1B6F634A43F0010313671CE07B6897
:1053A0009B68052B0CD15F4B1B6F5E4A43F00403D7
:1053B00013675C4B1B6F5B4A43F0010313670BE001
:1053C000584B1B6F574A23F001031367554B1B6F54
:1053D000544A23F0040313677B689B68002B15D0A5
:1053E000FEF704FC38610AE0FEF700FC02463B6968
:1053F000D31A41F28832934201D90323CBE0494BBF
:105400001B6F03F00203002BEED014E0FEF7EEFB5F
:1054100038610AE0FEF7EAFB02463B69D31A41F223
:105420008832934201D90323B5E03E4B1B6F03F052
:105430000203002BEED1FB7D012B05D1394B1B6CF8
:10544000384A23F0805313647B689B69002B00F07B
:10545000A180344B9B6803F00C03082B5CD07B6865
:105460009B69022B41D1314B00221A60FEF7BEFB33
:10547000386108E0FEF7BAFB02463B69D31A022BFB
:1054800001D9032387E0274B1B6803F00073002B2F
:10549000F0D17B68DA697B681B6A1A437B685B6AB8
:1054A0009B011A437B689B6A5B08013B1B041A4300
:1054B0007B68DB6A1B061B4913434B601B4B0122B5
:1054C0001A60FEF793FB386108E0FEF78FFB024697
:1054D0003B69D31A022B01D903235CE0114B1B68F3
:1054E00003F00073002BF0D054E0104B00221A6040
:1054F000FEF77CFB386108E0FEF778FB02463B696B
:10550000D31A022B01D9032345E0064B1B6803F095
:105510000073002BF0D13DE07B689B69012B07D124
:10552000012338E00038024000700040600047422C
:105530001B4B5B68FB607B689B69012B28D0FB6879
:1055400003F480027B68DB699A4221D1FB6803F097
:105550003F027B681B6A9A421AD1FA6847F6C07309
:1055600013407A68526A9201934211D1FB6803F4A6
:1055700040327B689B6A5B08013B1B049A4207D15F
:10558000FB6803F070627B68DB6A1B069A4201D0FD
:10559000012300E0002318461837BD4680BD00BF38
:1055A0000038024080B584B000AF786039607B6815
:1055B000002B01D10123CCE0684B1B6803F00703EB
:1055C0003A689A420CD9654B3A68D2B21A70634B6A
:1055D0001B6803F007033A689A4201D00123B8E040
:1055E0007B681B6803F00203002B20D07B681B68DC
:1055F00003F00403002B05D0594B9B68584A43F431
:10560000E05393607B681B6803F00803002B05D010
:10561000534B9B68524A43F460439360504B9B68E2
:1056200023F0F0027B689B684D4913438B607B68D5
:105630001B6803F00103002B44D07B685B68012BDF
:1056400007D1474B1B6803F40033002B19D101230A
:105650007FE07B685B68022B03D07B685B68032B71
:1056600007D13F4B1B6803F00073002B09D10123C6
:105670006FE03B4B1B6803F00203002B01D10123B9
:1056800067E0374B9B6823F003027B685B68344913
:1056900013438B60FEF7AAFAF8600AE0FEF7A6FA59
:1056A0000246FB68D31A41F28832934201D90323A0
:1056B0004FE02B4B9B6803F00C027B685B689B0000
:1056C0009A42EBD1254B1B6803F007033A689A42D4
:1056D0000CD2224B3A68D2B21A70204B1B6803F0EE
:1056E00007033A689A4201D0012332E07B681B68C5
:1056F00003F00403002B08D0194B9B6823F4E052FD
:105700007B68DB68164913438B607B681B6803F07A
:105710000803002B09D0124B9B6823F460427B687E
:105720001B69DB000E4913438B6000F021F8024631
:105730000B4B9B681B0903F00F030A49CB5C22FA51
:1057400003F3094A1360094B1B681846FEF70AFA6F
:10575000002318461037BD4680BD00BF003C024004
:10576000003802402CB30008000000200400002094
:105770002DE9B04F90B000AF00237B630023FB63A3
:1057800000233B630023BB63594B9B6803F00C036E
:10579000082B0DD0082B00F2A180002B02D0042B87
:1057A00003D09BE0534BBB639BE0534BBB6398E040
:1057B0004F4B5B6803F03F037B634D4B5B6803F427
:1057C0008003002B28D04A4B5B689B0900223B6278
:1057D0007A623B6AC3F308000021474B03FB01F2E6
:1057E000002300FB03F31344434AA0FB0212FA62B6
:1057F0000A46BA62FA6A1344FB627B6B0022BB6101
:10580000FA61D7E90623D7E90A01FBF745FA024610
:105810000B461346FB6353E0354B5B689B09002244
:105820003B617A613B69C3F3080A4FF0000B5246B3
:105830005B464FF000004FF00001590141EAD26190
:10584000500102460B46B2EB0A0863EB0B094FF01E
:1058500000024FF000034FEA891343EA98634FEACE
:105860008812B2EB080463EB09054FF000024FF019
:105870000003EB0043EA5473E20014461D4614EBA8
:105880000A033B6045EB0B037B604FF000024FF0D7
:105890000003D7E9004529468B02214643EA91538C
:1058A00021468A02104619467B6B0022BB60FA60D3
:1058B000D7E90223FBF7F0F902460B461346FB63D8
:1058C0000B4B5B681B0C03F0030301335B003B6372
:1058D000FA6B3B6BB2FBF3F3BB6302E0054BBB63BC
:1058E00000BFBB6B18464037BD46BDE8B08F00BF58
:1058F000003802400024F40040787D0180B400AFFD
:10590000034B1B681846BD465DF8047B704700BF1B
:105910000000002080B500AFFFF7F0FF0246054B06
:105920009B689B0A03F007030349CB5C22FA03F34D
:10593000184680BD003802403CB3000880B500AF77
:10594000FFF7DCFF0246054B9B685B0B03F0070388
:105950000349CB5C22FA03F3184680BD00380240AD
:105960003CB3000880B582B000AF78607B68002B44
:1059700001D1012341E07B6893F83D30DBB2002B7D
:1059800006D17B68002283F83C207868FDF71EFF73
:105990007B68022283F83D207B681A687B680433A9
:1059A0001946104600F050F97B68012283F8462022
:1059B0007B68012283F83E207B68012283F83F2028
:1059C0007B68012283F840207B68012283F8412014
:1059D0007B68012283F842207B68012283F8432000
:1059E0007B68012283F844207B68012283F84520EC
:1059F0007B68012283F83D20002318460837BD4606
:105A000080BD000080B485B000AF78607B6893F8FB
:105A10003D30DBB2012B01D001233CE07B68022248
:105A200083F83D207B681B681E4A934218D07B6830
:105A30001B68B3F1804F13D07B681B681A4A9342EE
:105A40000ED07B681B68194A934209D07B681B689B
:105A5000174A934204D07B681B68164A934211D1BF
:105A60007B681B689B6803F00703FB60FB68062BE1
:105A700010D07B681B681A687B681B6842F00102C3
:105A80001A6007E07B681B681A687B681B6842F035
:105A900001021A60002318461437BD465DF8047BE6
:105AA000704700BF000001400004004000080040B3
:105AB000000C00400040014080B584B000AF786029
:105AC00039600023FB737B6893F83C30012B01D1D4
:105AD0000223B4E07B68012283F83C207B68022229
