:020000040800F2
:100000000000022009280008E9250008EF25000863
:10001000F5250008FB250008012600080000000067
:10002000000000000000000000000000717D0008DA
:100030000726000800000000C17F00081526000800
:10004000592800085928000859280008592800088C
:10005000592800085928000859280008592800087C
:10006000592800085928000859280008592800086C
:10007000592800085928000859280008592800085C
:1000800059280008592800085928000800000000D5
:1000900000000000000000000000000059280008D7
:1000A000592800085928000859280008592800082C
:1000B000592800085928000859280008592800081C
:1000C0005928000859280008592800083126000836
:1000D000592800084526000859280008000000009B
:1000E0005928000859280008592800080000000075
:1000F0000000000000000000000000005928000877
:100100000000000059280008592800085928000854
:1001100000000000000000000000000000000000DF
:1001200059280008592800085928000859280008AB
:100130005928000800000000000000000000000036
:100140000000000000000000000000005928000826
:10015000592800085928000859280008592800087B
:10016000592800085928000800000000000000007D
:10017000000000000000000000000000000000007F
:1001800000000000592800080000000000000000E6
:08019000592800085928000855
:1001A00010B5054C237833B9044B13B10448AFF3B1
:1001B00000800123237010BDF0010020000000002A
:1001C00060D6000808B5034B1BB103490348AFF3E1
:1001D000008008BD00000000F401002060D6000887
:1001E000034613F8012B002AFBD1181A0138704777
:1001F00001F0FF01102A2BDB10F0070F08D010F8D8
:10020000013B013A8B422DD010F0070F42B3F6D1DB
:10021000F0B441EA012141EA014122F007047FF0F4
:1002200000070023F0E80256083C85EA010586EA4B
:10023000010685FA47F5A3FA87F586FA47F6A5FA87
:1002400087F68EB9EED1F0BC01F0FF0102F0070293
:1002500032B110F8013B013A83EA010313B1F8D13E
:100260000020704701387047002D06BF354603381F
:10027000073815F0010F07D1013015F4807F02BF58
:10028000013015F4C03F0130F0BC0138704700BFA9
:1002900081F0004102E000BF83F0004330B54FEA37
:1002A00041044FEA430594EA050F08BF90EA020FA4
:1002B0001FBF54EA000C55EA020C7FEA645C7FEA37
:1002C000655C00F0E2804FEA5454D4EB5555B8BF5A
:1002D0006D420CDD2C4480EA020281EA030382EACB
:1002E000000083EA010180EA020281EA0303362D5D
:1002F00088BF30BD11F0004F4FEA01314FF4801C30
:100300004CEA113102D0404261EB410113F0004F41
:100310004FEA03334CEA133302D0524263EB4303F8
:1003200094EA050F00F0A780A4F10104D5F1200E96
:100330000DDB02FA0EFC22FA05F2801841F10001F1
:1003400003FA0EF2801843FA05F359410EE0A5F1C5
:1003500020050EF1200E012A03FA0EFC28BF4CF0F6
:10036000020C43FA05F3C01851EBE37101F00045AC
:1003700007D54FF0000EDCF1000C7EEB00006EEBB9
:100380000101B1F5801F1BD3B1F5001F0CD3490843
:100390005FEA30004FEA3C0C04F101044FEA44529A
:1003A00012F5800F80F09A80BCF1004F08BF5FEA21
:1003B000500C50F1000041EB045141EA050130BD01
:1003C0005FEA4C0C404141EB0101013C28BFB1F513
:1003D000801FE9D291F0000F04BF01460020B1FA5E
:1003E00081F308BF2033A3F10B03B3F120020CDA31
:1003F0000C3208DD02F1140CC2F10C0201FA0CF00F
:1004000021FA02F10CE002F11402D8BFC2F1200C73
:1004100001FA02F120FA0CFCDCBF41EA0C01904029
:10042000E41AA2BF01EB0451294330BD6FEA040472
:100430001F3C1CDA0C340EDC04F11404C4F120025D
:1004400020FA04F001FA02F340EA030021FA04F36F
:1004500045EA030130BDC4F10C04C4F1200220FAC6
:1004600002F001FA04F340EA0300294630BD21FA04
:1004700004F0294630BD94F0000F83F4801306BFCA
:1004800081F480110134013D4EE77FEA645C18BFBE
:100490007FEA655C29D094EA050F08BF90EA020F55
:1004A00005D054EA000C04BF1946104630BD91EA4D
:1004B000030F1EBF0021002030BD5FEA545C05D150
:1004C0004000494128BF41F0004130BD14F580048F
:1004D0003CBF01F5801130BD01F0004545F0FE4103
:1004E00041F470014FF0000030BD7FEA645C1ABF38
:1004F000194610467FEA655C1CBF0B46024650EA6F
:10050000013406BF52EA033591EA030F41F400219A
:1005100030BD00BF90F0000F04BF0021704730B520
:100520004FF4806404F132044FF000054FF00001F5
:1005300050E700BF90F0000F04BF0021704730B5B6
:100540004FF4806404F1320410F0004548BF40428B
:100550004FF000013EE700BF42004FEAE2014FEAE0
:1005600031014FEA02701FBF12F07F4393F07F4FBB
:1005700081F06051704732F07F4208BF704793F0BE
:100580007F4F04BF41F40021704730B54FF46074D1
:1005900001F0004521F000411CE700BF50EA0102D4
:1005A00008BF704730B54FF000050AE050EA01027D
:1005B00008BF704730B511F0004502D5404261EBED
:1005C00041014FF4806404F132045FEA915C3FF42E
:1005D000D8AE4FF003025FEADC0C18BF03325FEACB
:1005E000DC0C18BF033202EBDC02C2F1200300FA7C
:1005F00003FC20FA02F001FA03FE40EA0E0021FAA1
:1006000002F11444BDE600BF70B54FF0FF0C4CF48E
:10061000E06C1CEA11541DBF1CEA135594EA0C0F40
:1006200095EA0C0F00F0DEF82C4481EA030621EA7B
:100630004C5123EA4C5350EA013518BF52EA0335B6
:1006400041F4801143F4801338D0A0FB02CE4FF068
:100650000005E1FB02E506F00042E0FB03E54FF098
:100660000006E1FB03569CF0000F18BF4EF0010E90
:10067000A4F1FF04B6F5007F64F5407404D25FEA8C
:100680004E0E6D4146EB060642EAC62141EA55513F
:100690004FEAC52040EA5E504FEACE2EB4F1FD0C81
:1006A00088BFBCF5E06F1ED8BEF1004F08BF5FEAFF
:1006B000500E50F1000041EB045170BD06F00046B1
:1006C00046EA010140EA020081EA0301B4EB5C045E
:1006D000C2BFD4EB0C0541EA045170BD41F4801156
:1006E0004FF0000E013C00F3AB8014F1360FDEBF7B
:1006F000002001F0004170BDC4F10004203C35DA57
:100700000C341BDC04F11404C4F1200500FA05F3D9
:1007100020FA04F001FA05F240EA020001F000427A
:1007200021F0004110EBD37021FA04F642EB0601F0
:100730005EEA430E08BF20EAD37070BDC4F10C041A
:10074000C4F1200500FA04F320FA05F001FA04F2DE
:1007500040EA020001F0004110EBD37041F10001CA
:100760005EEA430E08BF20EAD37070BDC4F12005D5
:1007700000FA05F24EEA020E20FA04F301FA05F23D
:1007800043EA020321FA04F001F0004121FA04F2E5
:1007900020EA020000EBD3705EEA430E08BF20EAB5
:1007A000D37070BD94F0000F0FD101F000464000EF
:1007B00041EB010111F4801F08BF013CF7D041EA71
:1007C000060195F0000F18BF704703F00046520075
:1007D00043EB030313F4801F08BF013DF7D043EA46
:1007E0000603704794EA0C0F0CEA135518BF95EAFC
:1007F0000C0F0CD050EA410618BF52EA4306D1D183
:1008000081EA030101F000414FF0000070BD50EAA1
:10081000410606BF1046194652EA430619D094EA2B
:100820000C0F02D150EA013613D195EA0C0F05D115
:1008300052EA03361CBF104619460AD181EA030169
:1008400001F0004141F0FE4141F470014FF0000021
:1008500070BD41F0FE4141F4780170BD70B54FF0BC
:10086000FF0C4CF4E06C1CEA11541DBF1CEA13553C
:1008700094EA0C0F95EA0C0F00F0A7F8A4EB05041E
:1008800081EA030E52EA03354FEA013100F0888015
:100890004FEA03334FF0805545EA131343EA1263DE
:1008A0004FEA022245EA111545EA10654FEA002693
:1008B0000EF000419D4208BF964244F1FD0404F54C
:1008C000407402D25B084FEA3202B61A65EB0305A8
:1008D0005B084FEA32024FF480104FF4002CB6EB65
:1008E000020E75EB030E22BFB61A754640EA0C00E5
:1008F0005B084FEA3202B6EB020E75EB030E22BF25
:10090000B61A754640EA5C005B084FEA3202B6EB65
:10091000020E75EB030E22BFB61A754640EA9C0024
:100920005B084FEA3202B6EB020E75EB030E22BFF4
:10093000B61A754640EADC0055EA060E18D04FEAB2
:10094000051545EA16754FEA06164FEAC30343EA52
:1009500052734FEAC2025FEA1C1CC0D111F4801F1F
:100960000BD141EA00014FF000004FF0004CB6E718
:1009700011F4801F04BF01430020B4F1FD0C88BFB7
:10098000BCF5E06F3FF6AFAEB5EB030C04BFB6EBC2
:10099000020C5FEA500C50F1000041EB045170BDB5
:1009A0000EF0004E4EEA113114EB5C04C2BFD4EBE2
:1009B0000C0541EA045170BD41F480114FF0000E66
:1009C000013C90E645EA060E8DE60CEA135594EAE2
:1009D0000C0F08BF95EA0C0F3FF43BAF94EA0C0FE5
:1009E0000AD150EA01347FF434AF95EA0C0F7FF45A
:1009F00025AF104619462CE795EA0C0F06D152EAAE
:100A000003353FF4FDAE1046194622E750EA410691
:100A100018BF52EA43067FF4C5AE50EA41047FF4A2
:100A20000DAF52EA43057FF4EBAE12E74FF0FF3C07
:100A300006E000BF4FF0010C02E000BF4FF0010CD8
:100A40004DF804CD4FEA410C7FEA6C5C4FEA430C51
:100A500018BF7FEA6C5C1BD001B050EA410C0CBFA0
:100A600052EA430C91EA030F02BF90EA020F002002
:100A7000704710F1000F91EA030F58BF994208BF69
:100A800090422CBFD8176FEAE37040F00100704726
:100A90004FEA410C7FEA6C5C02D150EA013C07D17D
:100AA0004FEA430C7FEA6C5CD6D152EA033CD3D0C8
:100AB0005DF8040B704700BF8446104662468C46C2
:100AC0001946634600E000BF01B5FFF7B7FF0028F5
:100AD00048BF10F1000F01BD4DF808EDFFF7F4FF1E
:100AE0000CBF012000205DF808FB00BF4DF808EDA9
:100AF000FFF7EAFF34BF012000205DF808FB00BFCC
:100B00004DF808EDFFF7E0FF94BF012000205DF8ED
:100B100008FB00BF4DF808EDFFF7CEFF94BF0120A2
:100B200000205DF808FB00BF4DF808EDFFF7C4FF9B
:100B300034BF012000205DF808FB00BF4FEA410CE4
:100B40007FEA6C5C02D150EA013C0AD14FEA430CC7
:100B50007FEA6C5C02D152EA033C02D14FF0000004
:100B600070474FF0010070474FEA410212F5001242
:100B700015D211D56FF47873B3EB625212D94FEAE4
:100B8000C12343F0004343EA505311F0004F23FACE
:100B900002F018BF404270474FF00000704750EA23
:100BA000013005D111F0004008BF6FF000407047E0
:100BB0004FF00000704700BF4A0011D212F500123A
:100BC00011D20DD56FF47873B3EB62520ED44FEAA5
:100BD000C12343F0004343EA505323FA02F0704725
:100BE0004FF00000704750EA013002D14FF0FF3063
:100BF00070474FF0000070474FEA4102B2F1E04306
:100C000024BFB3F5001CDCF1FE5C0DD901F0004CF3
:100C10004FEAC0024CEA5070B2F1004F40EB830043
:100C200008BF20F00100704711F0804F21D113F16F
:100C30003872BCBF01F00040704741F480114FEAA8
:100C40005252C2F11802C2F1200C10FA0CF320FA31
:100C500002F018BF40F001004FEAC1234FEAD3234E
:100C600003FA0CFC40EA0C0023FA02F34FEA4303B8
:100C7000CCE77FEA625307D150EA01331EBF4FF041
:100C8000FE4040F44000704701F0004040F0FE405C
:100C900040F40000704700BF53B94AB9002908BFAB
:100CA00000281CBF4FF0FF314FF0FF3000F0AAB911
:100CB000ADF1080C6DE904CE00F03CF8DDF804E07D
:100CC000DDE9022304B0704738B500220023044652
:100CD0000D46FFF70BFF28B920462946BDE83840EE
:100CE00000F00AB8204605F1004100F005F8404246
:100CF00061EB410138BD00BFD0B50C4B0022064668
:100D00000F46FFF781FCFFF757FF0446FFF702FC91
:100D1000074B0022FFF778FC02460B463046394667
:100D2000FFF7BAFAFFF748FF2146D0BD0000F03DBB
:100D30000000F0412DE9F047089D04468E46002B47
:100D40004DD18A42944669D9B2FA82F252B101FA7F
:100D500002F3C2F1200120FA01F10CFA02FC41EA8F
:100D6000030E94404FEA1C48210CBEFBF8F61FFA14
:100D70008CF708FB16E341EA034306FB07F19942AF
:100D80000AD91CEB030306F1FF3080F01F81994262
:100D900040F21C81023E63445B1AA4B2B3FBF8F03C
:100DA00008FB103344EA034400FB07F7A7420AD9C3
:100DB0001CEB040400F1FF3380F00A81A74240F2EB
:100DC00007816444023840EA0640E41B00261DB156
:100DD000D4400023C5E900433146BDE8F0878B428B
:100DE00009D9002D00F0EF800026C5E9000130464A
:100DF0003146BDE8F087B3FA83F6002E4AD18B4224
:100E000002D3824200F2F980841A61EB03030120CD
:100E10009E46002DE0D0C5E9004EDDE702B9FFDEB9
:100E2000B2FA82F2002A40F09280A1EB0C014FEA64
:100E30001C471FFA8CFE0126200CB1FBF7F307FBC1
:100E4000131140EA01410EFB03F0884208D91CEB64
:100E5000010103F1FF3802D2884200F2CB80434601
:100E6000091AA4B2B1FBF7F007FB101144EA0144E0
:100E70000EFB00FEA64508D91CEB040400F1FF316F
:100E800002D2A64500F2BB800846A4EB0E0440EA5D
:100E900003409CE7C6F12007B34022FA07FC4CEA66
:100EA000030C20FA07F401FA06F31C43F9404FEA59
:100EB0001C4900FA06F3B1FBF9F8200C1FFA8CFE6E
:100EC00009FB181140EA014108FB0EF0884202FAC2
:100ED00006F20BD91CEB010108F1FF3A80F0888083
:100EE000884240F28580A8F102086144091AA4B240
:100EF000B1FBF9F009FB101144EA014100FB0EFEC1
:100F00008E4508D91CEB010100F1FF346CD28E45EF
:100F10006AD90238614440EA0840A0FB0294A1EB80
:100F20000E01A142C846A64656D353D05DB1B3EBDD
:100F3000080261EB0E0101FA07F722FA06F3F1400D
:100F40001F43C5E9007100263146BDE8F087C2F1B4
:100F50002003D8400CFA02FC21FA03F3914001432C
:100F60004FEA1C471FFA8CFEB3FBF7F007FB103665
:100F70000B0C43EA064300FB0EF69E4204FA02F411
:100F800008D91CEB030300F1FF382FD29E422DD964
:100F9000023863449B1B89B2B3FBF7F607FB163399
:100FA00041EA034106FB0EF38B4208D91CEB010119
:100FB00006F1FF3816D28B4214D9023E6144C91A99
:100FC00046EA004638E72E46284605E70646E3E6A9
:100FD0001846F8E64B45A9D2B9EB020864EB0C0EB3
:100FE0000138A3E74646EAE7204694E74046D1E7C2
:100FF000D0467BE7023B614432E7304609E7644470
:10100000023842E7704700BF80B400AF00BFBD4662
:101010005DF8047B704780B586B004AF78600B46FE
:10102000FB704FF0FF33029301230193FB1C0093ED
:10103000012300227821786802F02CF900BF0837DC
:10104000BD4680BD80B588B004AFF860B9607A60F5
:101050007B689BB24FF0FF3202920193BB68009312
:10106000012340227821F86802F014F900BF1037FC
:10107000BD4680BD80B582B000AF7860FFF7C4FF89
:10108000642001F05DFC0021786800F059FA20210D
:101090007868FFF7C0FF00217868FFF7BCFFB02138
:1010A0007868FFF7B8FFC8217868FFF7B4FF002120
:1010B0007868FFF7B0FF10217868FFF7ACFF402198
:1010C0007868FFF7A8FFFF21786800F022FAA121D5
:1010D0007868FFF7A0FFA6217868FFF79CFFA8219A
:1010E0007868FFF798FF3F217868FFF794FFA42105
:1010F0007868FFF790FFD3217868FFF78CFF002115
:101100007868FFF788FFD5217868FFF784FFF02122
:101110007868FFF780FFD9217868FFF77CFF2221EC
:101120007868FFF778FFDA217868FFF774FF1221FB
:101130007868FFF770FFDB217868FFF76CFF2021EC
:101140007868FFF768FF8D217868FFF764FF142146
:101150007868FFF760FF0121786800F0F1F900205E
:1011600000F012F8786800F033F8064B00221A807D
:10117000044B00225A80034B01221A7100BF08372A
:10118000BD4680BD0C06002080B485B000AF03468C
:10119000FB710023FB600DE0FB79002B01D10021E6
:1011A00000E0FF21094AFB6813440A461A70FB68F5
:1011B0000133FB60FB68B3F5806FEDD300BF00BF68
:1011C0001437BD465DF8047B704700BF0C02002059
:1011D00080B584B000AF78600023FB731AE0FB7B1E
:1011E000503BDBB219467868FFF715FF002178689D
:1011F000FFF711FF10217868FFF70DFFFB7BDB0184
:10120000084A1344802219467868FFF71BFFFB7BCE
:101210000133FB73FB7B072BE1D900BF00BF103705
:10122000BD4680BD0C02002080B483B000AF0346F1
:10123000FB710B46BB7113467B7197F90730002B8E
:101240003DDBBB793F2B3AD87B79012B1AD1FA7958
:10125000BB79DB08D8B20346DB0113441B4AD35CDD
:101260005AB2BB7903F00703012101FA03F35BB221
:10127000134359B2FA790346DB011344C9B2134A46
:10128000D1541DE0FA79BB79DB08D8B20346DB0103
:1012900013440E4AD35C5AB2BB7903F00703012111
:1012A00001FA03F35BB2DB435BB2134059B2FA7944
:1012B0000346DB011344C9B2044AD15400E000BF25
:1012C0000C37BD465DF8047B704700BF0C02002060
:1012D00090B589B000AF0446381D80E806001A4674
:1012E0002346FB731346BB73FB7B1F2B02D9FB7B8F
:1012F0007E2B01D900236DE0384B1B881A463B79C1
:101300001344802B06DC354B5B881A467B791344EB
:10131000402B01DD00235DE00023FB614CE0BA6857
:10132000FB7B203B797901FB03F31946FB690B44F6
:101330005B0013441B887B610023BB6134E07A6946
:10134000BB6902FA03F303F40043002B12D0234BD2
:101350001B88DAB2BB69DBB21344D8B21F4B5B887F
:10136000DAB2FB69DBB21344DBB2BA7B1946FFF792
:101370005BFF16E0194B1B88DAB2BB69DBB2134482
:10138000D8B2164B5B88DAB2FB69DBB21344D9B230
:10139000BB7B002B0CBF01230023DBB21A46FFF7F7
:1013A00043FFBB690133BB613B791A46BB6993427A
:1013B000C5D3FB690133FB617B791A46FB69934214
:1013C000ADD3064B1A883B799BB213449AB2034BB8
:1013D0001A80FB7B18462437BD4690BD0C060020C2
:1013E00080B584B000AFF860381D80E80600FB705F
:1013F00012E0FB681878FB783A1D06CAFFF768FF11
:1014000003461A46FB681B789A4202D0FB681B7899
:1014100008E0FB680133FB60FB681B78002BE8D118
:10142000FB681B7818461037BD4680BD80B483B07A
:1014300000AF03460A46FB711346BB71FB799AB2B3
:10144000054B1A80BB799AB2034B5A8000BF0C3708
:10145000BD465DF8047B70470C06002080B584B063
:1014600000AF3A601A460346FB710B46BB71134648
:101470007B717B790733002B00DA0733DB107B812C
:101480000023FB7397F90730002B3EDBBB793F2B22
:101490003BD80023BB7333E000237B7326E07B7BC8
:1014A00003F00703002B03D0FB7B5B00FB730DE015
:1014B000BB7BB7F90A2002FB03F37A7BD208D2B2D6
:1014C00013441A463B6813441B78FB7397F90F309B
:1014D000002B08DAFA797B7B1344DBB23A7FB979C7
:1014E0001846FFF7A1FE7B7B01337B737A7B7B7908
:1014F0009A42D4D3BB7B0133BB73BB790133BB713D
:10150000BA7B3B7E9A42C7D300E000BF1037BD468E
:1015100080BD80B584B000AF78600B46FB7081233E
:10152000FB73FB7B19467868FFF775FDFB7819465E
:101530007868FFF770FD00BF1037BD4680BD000022
:1015400080B584B000AF78600B46FB70FB78002B51
:1015500005D0AF23FB73094B01225A7104E0AE237F
:10156000FB73064B00225A71FB7B19467868FFF724
:1015700052FD00BF1037BD4680BD00BF0C060020E5
:1015800080B584B002AF78600020FFF7FDFD012335
:101590000193402300934023054A00212020FFF7B8
:1015A0005DFF7868FFF714FE00BF0837BD4680BDB9
:1015B00054DE000880B5A0B002AF78613961FA60EE
:1015C000BB6087ED010AC7ED000A07F16000BB6848
:1015D0000093FB683A693B4907F03AFF07F148007E
:1015E000D7F888300093D7F88430D7F88020354971
:1015F00007F02EFF7868FEF7AFFF02460B4607F1B3
:101600003000314907F024FF3868FEF7A5FF024695
:101610000B4607F118002D4907F01AFF0120FFF7CC
:10162000B3FD00210220FFF701FF294A002306CA6B
:101630002848FFF7D5FE09210220FFF7F7FE244ACC
:1016400007F16000002306CAFFF7CAFE122102203C
:10165000FFF7ECFE1E4A002306CA1F48FFF7C0FE34
:101660001B210220FFF7E2FE194A07F14800002380
:1016700006CAFFF7B5FE24210220FFF7D7FE144A61
:10168000002306CA1548FFF7ABFE2D210220FFF705
:10169000CDFE0F4A07F13000002306CAFFF7A0FE77
:1016A00036210220FFF7C2FE094A07F11800002385
:1016B00006CAFFF795FE7869FFF78AFD00BF783705
:1016C000BD4680BD08D700081CD7000828D70008F1
:1016D0000000002034D7000844D7000850D7000885
:1016E00080B485B000AFF860B9601346FB80074A4C
:1016F000FB681360064ABB681360064AFB881380C8
:1017000000BF1437BD465DF8047B70471C060020FF
:10171000140600201806002080B500AF044B1B689B
:10172000044A11880022184601F056FC00BF80BD13
:10173000140600201806002080B500AF044B1B687B
:10174000044A11880122184601F046FC00BF80BD02
:10175000140600201806002080B582B000AF0120DA
:1017600006F0C6FE03467B60012006F0C1FE03467C
:101770003B607B6806221A70FFF7CEFF01223968B2
:10178000786800F067F8FFF7D7FF786806F0B8FED2
:10179000386806F0B5FE00BF0837BD4680BD80B58D
:1017A00082B000AF012006F0A3FE03467B6001205B
:1017B00006F09EFE03463B607B6804221A70FFF72A
:1017C000ABFF01223968786800F044F8FFF7B4FFF6
:1017D000786806F095FE386806F092FE00BF08377C
:1017E000BD4680BD80B584B000AFFFF795FF0120F6
:1017F00006F07EFE0346FB60012006F079FE0346FC
:10180000BB60FB6805221A70FFF786FF0122B968EA
:10181000F86800F01FF80E4B1A78FB681A70012266
:10182000B968F86800F016F8BB681B78FB71FB79A3
:1018300003F00103002BEED1FFF77EFFF86806F0FE
:101840005FFEB86806F05CFE00BF1037BD4680BD85
:101850000800002080B584B000AFF860B96013467E
:10186000FB800B4B00221A700A4B1868FB88BA6881
:10187000F96802F009FD00BF054B1B7883F00103F6
:10188000DBB2002BF8D100BF00BF1037BD4680BDD2
:10189000481200201C06002080B586B000AFF8601A
:1018A000B9601346FB80FFF737FFFB880433184607
:1018B00006F01EFE03467B61FB88184606F018FE04
:1018C00003463B617B6903221A70BB681A0C7B6973
:1018D0000133D2B21A70BB681A0A7B690233D2B2E2
:1018E0001A707B690333BA68D2B21A70042239695C
:1018F0007869FFF7AFFF7B690433FA88F968184607
:10190000FFF7A8FFFFF718FF786906F0F9FD3869BF
:1019100006F0F6FD00BF1837BD4680BD80B588B023
:1019200000AFF860B9601346FB80FB8804331846AB
:1019300006F0DEFD0346BB61FB88184606F0D8FDC5
:1019400003467B61FB88184606F0D2FD03463B61E7
:10195000FFF702FFFFF7E0FEBB6902221A70BB68C7
:101960001A0CBB690133D2B21A70BB681A0ABB6980
:101970000233D2B21A70BB690333BA68D2B21A709A
:1019800004227969B869FFF765FF0023FB770AE055
:10199000FB7FFA681A44FB7F79690B4412781A704E
:1019A000FB7F0133FB77FB7F9BB2FA889A42EFD82B
:1019B000FB881A4639697869FFF74CFFFFF7BCFED0
:1019C000FFF710FFFFF7EBFEB86906F099FD7869A5
:1019D00006F096FD00BF2037BD4680BD80B584B0BF
:1019E00000AF7860042006F083FD0346FB6004200E
:1019F00006F07EFD0346BB60FB6820221A707B6800
:101A00001A0CFB680133D2B21A707B681A0AFB68A1
:101A10000233D2B21A70FB6803337A68D2B21A70FA
:101A2000FFF79AFEFFF778FE0422B968F868FFF71F
:101A300011FFFFF781FEFFF7D5FEFFF7B0FEF86854
:101A400006F05EFDB86806F05BFD00BF1037BD46CE
:101A500080BD000080B485B000AFF860B9607A60E6
:101A6000FB68074A1A60BB68064A1A607B688022D6
:101A70001A6000BF1437BD465DF8047B704700BF95
:101A80002006002074060020B0B58AB002AF00F036
:101A9000E5FE00F089F800F0C1F900F0E3F800F08D
:101AA00093F900F043F900F00BF92F48FFF7E2FA41
:101AB00008222E492E48FFF713FE01222D492E48F9
:101AC00003F01BFB2848FFF75BFD2C4B3C1D1D461C
:101AD0000FCD0FC495E8070084E807003B1D0021E7
:101AE000184604F0C2FA0346254A13600022012179
:101AF000012004F037FC0346224A13600022012132
:101B0000012004F02FFC03461F4A1360012004F05B
:101B10009CFC03461D4A136000230193022300939B
:101B200000234FF400621A491A4805F034F90023E3
:101B300001930123009300234FF4006216491748D4
:101B400005F029F9002301930123009300234FF4AA
:101B500000621349134805F01EF904F07FFA0023D0
:101B600018462037BD46B0BD740800200000024072
:101B7000C8080020D1090020680900208CD700087F
:101B8000AC09002040120020441200203C1200202A
:101B900064D70008ED1E000870D70008651F000814
:101BA0007CD70008A120000880B594B000AF07F1F1
:101BB000200330220021184606F0D2FC07F10C0366
:101BC00000221A605A609A60DA601A610023BB60D2
:101BD000224B1B6C214A43F0805313641F4B1B6C38
:101BE00003F08053BB60BB6800237B601C4B1B6809
:101BF0001B4A43F440431360194B1B6803F44043F2
:101C00007B607B6802233B620123FB6210233B6302
:101C10000023BB6307F12003184601F053FE03467F
:101C2000002B01D000F0A4FB0F23FB6000233B61DD
:101C300000237B610023BB610023FB6107F10C03E0
:101C40000021184602F0B6F80346002B01D000F040
:101C50008FFB00BF5037BD4680BD00BF003802403B
:101C60000070004080B500AF124B134A1A60114B50
:101C7000124A5A600F4B00229A600E4B0022DA6023
:101C80000C4B4FF480421A610A4B00225A61094BF7
:101C900000229A61074B0022DA61064B00221A6289
:101CA000044801F0B3F90346002B01D000F060FBBB
:101CB00000BF80BD7408002000540040A0860100D1
:101CC00080B500AF174B184A1A60164B4FF482725A
:101CD0005A60144B00229A60124B0022DA60114BBA
:101CE00000221A610F4B00225A610E4B4FF4007212
:101CF0009A610C4B0022DA610A4B00221A62094BEE
:101D000000225A62074B00229A62064B0A22DA62CC
:101D1000044802F02FFA0346002B01D000F028FB04
:101D200000BF80BDC80800200030014080B586B0EB
:101D300000AF07F1080300221A605A609A60DA6067
:101D40003B4600221A605A601D4B1E4A1A601C4B0B
:101D50000F225A601A4B00229A60194B40F2E73268
:101D6000DA60174B00221A61154B00229A61144861
:101D700002F046FE0346002B01D000F0F9FA4FF4C2
:101D80008053BB6007F1080319460D4802F087FE37
:101D90000346002B01D000F0EBFA00233B60002348
:101DA0007B603B461946064803F05AF80346002B71
:101DB00001D000F0DDFA00BF1837BD4680BD00BF7E
:101DC000200900200004004080B500AF114B124AEA
:101DD0001A60104B4FF4E1325A600E4B00229A60A9
:101DE0000C4B0022DA600B4B00221A61094B0C22CB
:101DF0005A61084B00229A61064B0022DA610548BD
:101E000003F09CF80346002B01D000F0B1FA00BFAC
:101E100080BD00BF680900200010014080B588B077
:101E200000AF07F10C0300221A605A609A60DA6072
:101E30001A610023BB602A4B1B6B294A43F0040341
:101E40001363274B1B6B03F00403BB60BB680023C9
:101E50007B60234B1B6B224A43F001031363204B2F
:101E60001B6B03F001037B607B6800233B601C4B12
:101E70001B6B1B4A43F002031363194B1B6B03F0EC
:101E800002033B603B6800224FF40051154801F00B
:101E9000A3F800220821144801F09EF84FF40053E3
:101EA000FB6001233B6100237B610023BB6107F1E1
:101EB0000C0319460B4800F00BFF0823FB600123BD
:101EC0003B6100237B610023BB6107F10C031946D2
:101ED000054800F0FDFE00BF2037BD4680BD00BFB5
:101EE00000380240000802400000024080B500AF08
:101EF00000F020F9154B1B78002B22D0144B1B68E7
:101F00004FF0FF31184604F097FC0346012B18D11F
:101F1000104800F0F9F9104B1868002300220F490F
:101F200004F0ACFA094B00221A70094B1868002320
:101F30000022002104F0A2FA00F082F9084800F023
:101F4000E3F94FF47A7005F05DF8D1E7D00900208D
:101F50003C120020A8D700084012002009000020F1
:101F6000BCD70008F0B585B004AF3D4B1B681846E0
:101F700004F06EFD0346002B6ED03A4B1B684FF009
:101F8000FF31184604F058FC0346012B64D1364853
:101F900000F0BAF9354B1868354B1968354B1C6899
:101FA000354B1D68354B1B68354A1268354ED6EDEA
:101FB000007A354E96ED007A01920093F0EE470AD2
:101FC000B0EE670A2B46224600F06EF94FF420402F
:101FD000FFF704FD2D48FEF703F903469BB21A46AE
:101FE0004FF420412948FFF799FC2848FEF7F8F8FC
:101FF0000346DAB2264B1A70264B186800230022DB
:10200000234904F03BFA194B1868194B1C68194B0B
:102010001D68194B1B68194A126819490968194E3D
:10202000D6ED007A184E96ED007A02910192009357
:10203000F0EE470AB0EE670A2B46224601461648E4
:10204000FFF7B8FA074B186800230022002104F0BC
:1020500015FA124800F058F9642004F0D3FF84E721
:10206000401200203C120020D0D70008B009002008
:10207000B4090020B8090020BC090020C0090020D4
:10208000C4090020C8090020CC0900203C0A002017
:102090000A0000204412002074080020E4D7000841
:1020A00080B582B000AF0023FB711D4B1B68184642
:1020B00004F0CEFC0346002B2ED01A4B1B684FF0C9
:1020C000FF31184604F0B8FB0346012B24D1164813
:1020D00000F01AF9124B1B68F91D4FF0FF32184639
:1020E00004F0CAFAFB799BB21A464FF420410F481C
:1020F000FFF7D2FB0D48FEF773F803469AB24FF490
:10210000FA730A490A4802F066FF064B1868002372
:102110000022002104F0B2F9642004F073FFC4E748
:10212000441200203C120020FCD700083C0E002086
:102130006809002080B586B006AF00F0F5FB0346C5
:10214000184A12789B1A632B29D91748FEF748F8CA
:102150000346232B23D91448FEF742F80346282BC5
:1021600018D9124B0493124B0393124B0293124B48
:102170000193124B0093124B124A13490A4800F084
:1021800073F800F05DF8114B01221A70104800F04E
:10219000BBF804E00F4800F0B7F800F051F800BFBA
:1021A000BD4680BD390A0020D4090020CC0900209A
:1021B000C8090020C4090020C0090020BC09002073
:1021C000B8090020B4090020B0090020D00900207F
:1021D00010D800081CD8000880B582B000AF786025
:1021E0007B681A68114B1B689A421BD1104B1B78F5
:1021F000632B06D80E4B1B781A460E4B19780E4BE4
:10220000995400F091FB0346DAB20C4B1A70084B5C
:102210001B780133DAB2064B1A70012205490348D4
:1022200002F06BFF00BF0837BD4680BD6809002083
:10223000380A0020D1090020D4090020390A0020E2
:1022400080B500AF0648FDF7CBFF03461A460021D4
:10225000034806F085F9034B00221A7000BF80BDC9
:10226000D4090020380A002080B58AB006AFF86093
:10227000B9607A603B60BB6A05937B6A04933B6AF2
:102280000393FB690293BB6901933B6800937B68EE
:10229000BA680449F86807F0FBF800BF1037BD467C
:1022A00080BD00BF28D80008B0B58EB008AF7861F7
:1022B0003961FA60BB6087ED010AC7ED000A7868F2
:1022C000FEF74AF904460D463868FEF745F902461E
:1022D0000B46CDE90623CDE90445FB6A0393BB6AAF
:1022E0000293BB680193FB6800933B697A690449D8
:1022F000044807F0ADF800BF1837BD46B0BD00BFB9
:1023000028D800083C0A002080B582B000AF786071
:102310007868FDF765FF03469AB2C82379680348D9
:1023200002F059FE00BF0837BD4680BD6809002095
:1023300080B483B000AF78607B681A68064B1B6876
:102340009A4202D1054B01221A7000BF0C37BD46DC
:102350005DF8047B704700BFC808002048120020C9
:1023600080B582B000AF7860012003F0CAFEFBE7C1
:1023700080B400AF72B600BFFEE7000080B582B047
:1023800000AF00237B60124B5B6C114A43F4804327
:1023900053640F4B5B6C03F480437B607B680023CA
:1023A0003B600B4B1B6C0A4A43F080531364084B91
:1023B0001B6C03F080533B603B6800220F216FF0E1
:1023C000010000F0BCFB00BF0837BD4680BD00BF68
:1023D0000038024080B58AB000AF786007F114037E
:1023E00000221A605A609A60DA601A617B681B6882
:1023F000194A93422BD100233B61184B1B6B174AA0
:1024000043F002031363154B1B6B03F002033B61A4
:102410003B69C0237B611223BB610023FB61032363
:102420003B6204237B6207F1140319460C4800F059
:102430004FFC0023FB60094B1B6C084A43F400135C
:102440001364064B1B6C03F40013FB60FB6800BFB6
:102450002837BD4680BD00BF005400400038024010
:102460000004024080B58AB000AF786007F1140321
:1024700000221A605A609A60DA601A617B681B68F1
:102480001D4A934233D100233B611C4B5B6C1B4ABA
:1024900043F480535364194B5B6C03F480533B61EA
:1024A0003B690023FB60154B1B6B144A43F001038F
:1024B0001363124B1B6B03F00103FB60FB68E0230B
:1024C0007B610223BB610023FB6103233B62052385
:1024D0007B6207F114031946094800F0F9FB00225A
:1024E0000521232000F02BFB232000F044FB00BF3C
:1024F0002837BD4680BD00BF003001400038024093
:102500000000024080B485B000AF78607B681B6833
:102510000B4A93420DD10023FB600A4B1B6C094A06
:1025200043F002031364074B1B6C03F00203FB60D0
:10253000FB6800BF1437BD465DF8047B704700BFE1
:10254000000400400038024080B58AB000AF7860D7
:1025500007F1140300221A605A609A60DA601A6167
:102560007B681B681D4A934234D100233B611C4B9E
:102570005B6C1B4A43F010035364194B5B6C03F014
:1025800010033B613B690023FB60154B1B6B144A36
:1025900043F001031363124B1B6B03F00103FB6059
:1025A000FB684FF4C0637B610223BB610023FB61C6
:1025B00003233B6207237B6207F114031946094892
:1025C00000F086FB00220621252000F0B8FA252025
:1025D00000F0D1FA00BF2837BD4680BD0010014091
:1025E000003802400000024080B400AFFEE780B433
:1025F00000AFFEE780B400AFFEE780B400AFFEE7B7
:1026000080B400AFFEE780B400AF00BFBD465DF808
:10261000047B704780B500AF00F072F905F024F933
:102620000346012B01D005F0FFFC00BF80BD000078
:1026300080B500AF024801F0BBFE00BF80BD00BF07
:10264000C808002080B500AF024802F087FD00BF37
:1026500080BD00BF6809002080B400AF0123184688
:10266000BD465DF8047B704780B582B000AF7860EE
:10267000396005F013FF034616221A604FF0FF334E
:1026800018460837BD4680BD80B582B000AF78607F
:102690004FF0FF317868FFF7E7FFFEE780B586B0BF
:1026A00000AFF860B9607A6000237B610AE0AFF3A5
:1026B00000800146BB685A1CBA60CAB21A707B69B6
:1026C00001337B617A697B689A42F0DB7B6818464C
:1026D0001837BD4680BD80B586B000AFF860B960E0
:1026E0007A6000237B6109E0BB685A1CBA601B78E2
:1026F0001846AFF300807B6901337B617A697B68A0
:102700009A42F1DB7B6818461837BD4680BD80B41D
:1027100083B000AF78604FF0FF3318460C37BD46EA
:102720005DF8047B704780B483B000AF7860396097
:102730003B684FF400525A60002318460C37BD46E0
:102740005DF8047B704780B483B000AF78600123EC
:1027500018460C37BD465DF8047B704780B485B0E1
:1027600000AFF860B9607A60002318461437BD46A0
:102770005DF8047B7047000080B586B000AF7860DC
:10278000144A154BD31A7B617B693B61134B1B6861
:10279000002B02D1114B124A1A60104B1A687B6849
:1027A00013443A699A4207D205F078FE03460C2298
:1027B0001A604FF0FF3309E0084B1B68FB60074BC2
:1027C0001A687B681344054A1360FB68184618377B
:1027D000BD4680BD00000220000400004C12002015
:1027E000B84F002080B400AF064BD3F88830054ABC
:1027F00043F47003C2F8883000BFBD465DF8047B27
:10280000704700BF00ED00E0DFF834D00D480E49FE
:102810000E4A002302E0D458C4500433C4188C423A
:10282000F9D30B4A0B4C002301E013600432A2429F
:10283000FBD3FFF7D7FF05F037FEFFF725F9704709
:102840000000022000000020F001002034E5000814
:10285000F0010020B84F0020FEE7000080B500AF77
:102860000E4B1B680D4A43F4007313600B4B1B683F
:102870000A4A43F480631360084B1B68074A43F419
:1028800080731360032000F04FF90F2000F008F868
:10289000FFF774FD0023184680BD00BF003C0240D6
:1028A00080B582B000AF7860124B1A68124B1B786B
:1028B00019464FF47A73B3FBF1F3B2FBF3F3184606
:1028C00000F067F90346002B01D001230EE07B687E
:1028D0000F2B0AD8002279684FF0FF3000F02FF953
:1028E000064A7B681360002300E00123184608377E
:1028F000BD4680BD0C000020140000201000002008
:1029000080B400AF064B1B781A46064B1B68134475
:10291000044A136000BFBD465DF8047B704700BFEA
:10292000140000205012002080B400AF034B1B683D
:102930001846BD465DF8047B704700BF501200206A
:1029400080B584B000AF7860FFF7EEFFB8607B68B9
:10295000FB60FB68B3F1FF3F05D00A4B1B781A46BA
:10296000FB681344FB6000BFFFF7DEFF0246BB6855
:10297000D31AFA689A42F7D800BF00BF1037BD4695
:1029800080BD00BF1400002080B485B000AF786027
:102990007B6803F00703FB600C4BDB68BB60BA6825
:1029A0004FF6FF031340BB60FB681A02BB6813437A
:1029B00043F0BF6343F40033BB60044ABB68D36099
:1029C00000BF1437BD465DF8047B704700ED00E0A2
:1029D00080B400AF044BDB681B0A03F00703184602
:1029E000BD465DF8047B704700ED00E080B483B025
:1029F00000AF0346FB7197F90730002B0BDBFB7927
:102A000003F01F02074997F907305B09012000FA1C
:102A100002F241F8232000BF0C37BD465DF8047B6D
:102A2000704700BF00E100E080B483B000AF034610
:102A30003960FB7197F90730002B0ADB3B68DAB28B
:102A40000C4997F907301201D2B20B4483F80023E6
:102A50000AE03B68DAB20849FB7903F00F03043B54
:102A60001201D2B20B441A7600BF0C37BD465DF896
:102A7000047B704700E100E000ED00E080B489B025
:102A800000AFF860B9607A60FB6803F00703FB6190
:102A9000FB69C3F10703042B28BF0423BB61FB6957
:102AA0000433062B02D9FB69033B00E000237B6162
:102AB0004FF0FF32BB6902FA03F3DA43BB681A40F6
:102AC0007B699A404FF0FF317B6901FA03F3D943E8
:102AD0007B680B40134318462437BD465DF8047BE2
:102AE0007047000080B582B000AF78607B68013B22
:102AF000B3F1807F01D301230FE00A4A7B68013BD9
:102B000053600F214FF0FF30FFF78EFF054B00227F
:102B10009A60044B07221A60002318460837BD4606
:102B200080BD00BF10E000E080B582B000AF7860EB
:102B30007868FFF729FF00BF0837BD4680BD80B524
:102B400086B000AF0346B9607A60FB7300237B61F7
:102B5000FFF73EFF78617A68B9687869FFF78EFF02
:102B6000024697F90F3011461846FFF75DFF00BF88
:102B70001837BD4680BD80B582B000AF0346FB71FB
:102B800097F907301846FFF731FF00BF0837BD46F9
:102B900080BD80B582B000AF78607868FFF7A2FF93
:102BA000034618460837BD4680BD80B584B000AFE7
:102BB00078607B689B6DFB60FFF7B6FEB8607B6852
:102BC00093F83530DBB2022B08D07B6880225A653F
:102BD0007B68002283F83420012352E07B681B6865
:102BE0001A687B681B6822F016021A607B681B68F3
:102BF0005A697B681B6822F080025A617B681B6CF3
:102C0000002B03D17B689B6C002B07D07B681B6873
:102C10001A687B681B6822F008021A607B681B68D0
:102C20001A687B681B6822F001021A6013E0FFF744
:102C30007BFE0246BB68D31A052B0CD97B68202289
:102C40005A657B68032283F835207B68002283F86D
:102C50003420032315E07B681B681B6803F0010325
:102C6000002BE4D17B68DB6D3F229A40FB689A60C1
:102C70007B68012283F835207B68002283F83420AA
:102C8000002318461037BD4680BD80B483B000AF26
:102C900078607B6893F83530DBB2022B04D07B6818
:102CA00080225A6501230CE07B68052283F83520D9
:102CB0007B681B681A687B681B6822F001021A6037
:102CC000002318460C37BD465DF8047B70470000B2
:102CD00080B489B000AF7860396000237B61002345
:102CE0003B610023BB610023FB6159E10122FB69C9
:102CF00002FA03F37B613B681B687A6913403B610E
:102D00003A697B699A4240F048813B685B6803F00E
:102D10000303012B05D03B685B6803F00303022B20
:102D200030D17B689B68BB61FB695B00032202FAC0
:102D300003F3DB43BA691340BB613B68DA68FB69A4
:102D40005B0002FA03F3BA691343BB617B68BA699B
:102D50009A607B685B68BB610122FB6902FA03F33E
:102D6000DB43BA691340BB613B685B681B0903F036
:102D70000102FB6902FA03F3BA691343BB617B6882
:102D8000BA695A603B685B6803F00303032B17D0F2
:102D90007B68DB68BB61FB695B00032202FA03F31B
:102DA000DB43BA691340BB613B689A68FB695B000F
:102DB00002FA03F3BA691343BB617B68BA69DA604C
:102DC0003B685B6803F00303022B23D1FB69DA083D
:102DD0007B68083253F82230BB61FB6903F00703BC
:102DE0009B000F2202FA03F3DB43BA691340BB6175
:102DF0003B681A69FB6903F007039B0002FA03F3BF
:102E0000BA691343BB61FB69DA087B680832B969A8
:102E100043F822107B681B68BB61FB695B000322DF
:102E200002FA03F3DB43BA691340BB613B685B689A
:102E300003F00302FB695B0002FA03F3BA69134370
:102E4000BB617B68BA691A603B685B6803F4403316
:102E5000002B00F0A2800023FB60574B5B6C564AAE
:102E600043F480435364544B5B6C03F48043FB6036
:102E7000FB68524AFB699B08023352F82330BB615E
:102E8000FB6903F003039B000F2202FA03F3DB4309
:102E9000BA691340BB617B68494A934219D07B6889
:102EA000484A934213D07B68474A93420DD07B68CF
:102EB000464A934207D07B68454A934201D1042396
:102EC00008E0072306E0032304E0022302E00123D5
:102ED00000E00023FA6902F0030292009340BA690D
:102EE0001343BB613549FB699B080233BA6941F85A
:102EF0002320384B9B68BB613B69DB43BA691340B5
:102F0000BB613B685B6803F48013002B03D0BA6994
:102F10003B691343BB612F4ABB6993602D4BDB6850
:102F2000BB613B69DB43BA691340BB613B685B68CB
:102F300003F40013002B03D0BA693B691343BB6150
:102F4000244ABB69D360234B5B68BB613B69DB43AD
:102F5000BA691340BB613B685B6803F40033002B24
:102F600003D0BA693B691343BB611A4ABB6953601A
:102F7000184B1B68BB613B69DB43BA691340BB61FB
:102F80003B685B6803F48033002B03D0BA693B696C
:102F90001343BB610F4ABB691360FB690133FB61DB
:102FA000FB690F2B7FF6A2AE00BF00BF2437BD46E2
:102FB0005DF8047B704700BF0038024000380140D4
:102FC000000002400004024000080240000C0240E1
:102FD00000100240003C014080B483B000AF786034
:102FE0000B467B8013467B707B78002B03D07A885E
:102FF0007B689A6103E07B881A047B689A6100BF52
:103000000C37BD465DF8047B7047000080B584B086
:1030100000AF78607B68002B01D101232BE17B6836
:1030200093F83D30DBB2002B06D17B68002283F899
:103030003C207868FFF7CEF97B68242283F83D2096
:103040007B681B681A687B681B6822F001021A60A3
:103050007B681B681A687B681B6842F400421A6030
:103060007B681B681A687B681B6822F400421A6040
:1030700001F058F8F8607B685B68814A934207D892
:10308000FB68804A934294BF01230023DBB206E031
:10309000FB687D4A934294BF01230023DBB2002BDF
:1030A00001D00123E7E0FB68784AA2FB03239B0CD5
:1030B000BB607B681B685B6823F03F017B681B6813
:1030C000BA680A435A607B681B681B6A23F03F0199
:1030D0007B685B686A4A934202D8BB68013309E0A7
:1030E000BB684FF4967202FB03F3694AA2FB032309
:1030F0009B0901337A6812680B4313627B681B6873
:10310000DB6923F44F4222F0FF027B685B685C4975
:103110008B4219D8FB68591E7B685B685B00B1FB6A
:10312000F3F3591C40F6FC730B40002B0AD0FB68EC
:10313000591E7B685B685B00B1FBF3F30133C3F39B
:103140000B0351E004234FE07B689B68002B11D1F7
:10315000FB68581E7B6859680B465B000B44B0FB4C
:10316000F3F30133C3F30B03002B0CBF0123002344
:10317000DBB212E0FB68581E7B6859680B469B0067
:103180000B4499000B44B0FBF3F30133C3F30B037F
:10319000002B0CBF01230023DBB2002B01D0012345
:1031A00022E07B689B68002B0ED1FB68581E7B6871
:1031B00059680B465B000B44B0FBF3F30133C3F3D8
:1031C0000B0343F400430FE0FB68581E7B6859680B
:1031D0000B469B000B4499000B44B0FBF3F3013307
:1031E000C3F30B0343F44043796809681343CB618D
:1031F0007B681B681B6823F0C0017B68DA697B6809
:103200001B6A1A437B681B680A431A607B681B6849
:103210009B6823F4034323F0FF037A6811697A68FB
:10322000D26811437A6812680B4393607B681B680D
:10323000DB6823F0FF017B685A697B689B691A434E
:103240007B681B680A43DA607B681B681A687B68C6
:103250001B6842F001021A607B6800221A647B68D6
:10326000202283F83D207B6800221A637B680022BD
:1032700083F83E20002318461037BD4680BD00BFAE
:10328000A08601007F841E00FF083D0083DE1B43F3
:10329000D34D621080B588B002AFF8600846114681
:1032A0001A4603467B810B463B811346FB80FFF7A2
:1032B0003BFB7861FB6893F83D30DBB2202B40F09C
:1032C000D9807B690093192301226D49F86800F0C9
:1032D00071F90346002B01D00223CCE0FB6893F880
:1032E0003C30012B01D10223C5E0FB68012283F8A9
:1032F0003C20FB681B681B6803F00103012B07D00F
:10330000FB681B681A68FB681B6842F001021A60C0
:10331000FB681B681A68FB681B6822F400621A606D
:10332000FB68212283F83D20FB68402283F83E2081
:10333000FB6800221A64FB683A6A5A62FB68BA8C1E
:103340005A85FB685B8D9AB2FB681A85FB684D4A0B
:10335000DA62F8883A8979897B690193BB6A0093BC
:103360000346F86800F090F80346002B52D0012382
:1033700081E07A69B96AF86800F0F2F90346002B37
:103380000DD0FB681B6C042B07D1FB681B681A6807
:10339000FB681B6842F400721A6001236BE0FB6853
:1033A0005B6A1A78FB681B681A61FB685B6A5A1CC7
:1033B000FB685A62FB681B8D013B9AB2FB681A8559
:1033C000FB685B8D9BB2013B9AB2FB685A85FB6838
:1033D0001B685B6903F00403042B1BD1FB681B8D86
:1033E000002B17D0FB685B6A1A78FB681B681A61B0
:1033F000FB685B6A5A1CFB685A62FB681B8D013BC9
:103400009AB2FB681A85FB685B8D9BB2013B9AB24E
:10341000FB685A85FB681B8D002BAAD17A69B96AB3
:10342000F86800F0DEF90346002B0DD0FB681B6C3A
:10343000042B07D1FB681B681A68FB681B6842F401
:1034400000721A60012316E0FB681B681A68FB68AB
:103450001B6842F400721A60FB68202283F83D204A
:10346000FB68002283F83E20FB68002283F83C20A2
:10347000002300E0022318461837BD4680BD00BF78
:10348000020010000000FFFF80B588B002AFF860B6
:10349000084611461A4603467B810B463B8113467C
:1034A000FB80FB681B681A68FB681B6842F480722B
:1034B0001A607B6A00933B6A00224FF00111F868A2
:1034C00000F078F80346002B0DD0FB681B681B68E2
:1034D00003F48073B3F5807F03D1FB684FF400726F
:1034E0001A6403235FE07B89DBB21A46FB681B6822
:1034F00002F0FE021A617B6A3A6A2D49F86800F010
:10350000B0F80346002B01D001234CE000237B617F
:10351000FB681B685B697B61FB681B689B697B615F
:103520007B697A6A396AF86800F01AF90346002B59
:103530000DD0FB681B6C042B07D1FB681B681A6855
:10354000FB681B6842F400721A6001232BE0FB88C1
:10355000012B05D13B89DAB2FB681B681A6121E0B7
:103560003B891B0A9BB2DAB2FB681B681A617A6A54
:10357000396AF86800F0F4F80346002B0DD0FB68B8
:103580001B6C042B07D1FB681B681A68FB681B685F
:1035900042F400721A60012305E03B89DAB2FB684D
:1035A0001B681A61002318461837BD4680BD00BF4E
:1035B0000200010080B584B000AFF860B9603B60E4
:1035C0001346FB7125E03B68B3F1FF3F21D0FFF7C5
:1035D000ABF90246BB69D31A3A689A4202D33B68F8
:1035E000002B16D1FB6800221A63FB68202283F8A7
:1035F0003D20FB68002283F83E20FB681B6C43F0F3
:103600002002FB681A64FB68002283F83C20012337
:1036100023E0BB681B0CDBB2012B0DD1FB681B68E0
:103620005B69DA43BB6813409BB2002B0CBF0123DC
:103630000023DBB21A460CE0FB681B689B69DA4387
:10364000BB6813409BB2002B0CBF01230023DBB2ED
:103650001A46FB799A42B6D0002318461037BD4669
:1036600080BD80B584B000AFF860B9607A603B601F
:1036700051E0FB681B685B6903F48063B3F5806FFE
:1036800023D1FB681B681A68FB681B6842F4007250
:103690001A60FB681B686FF480625A61FB68002245
:1036A0001A63FB68202283F83D20FB68002283F820
:1036B0003E20FB681B6C43F00402FB681A64FB6845
:1036C000002283F83C20012346E07B68B3F1FF3FF2
:1036D00021D0FFF729F902463B68D31A7A689A424B
:1036E00002D37B68002B16D1FB6800221A63FB68AB
:1036F000202283F83D20FB68002283F83E20FB68EF
:103700001B6C43F02002FB681A64FB68002283F8FC
:103710003C20012320E0BB681B0CDBB2012B0CD149
:10372000FB681B685B69DA43BB6813409BB2002BE4
:1037300014BF01230023DBB20BE0FB681B689B690D
:10374000DA43BB6813409BB2002B14BF0123002354
:10375000DBB2002B8DD1002318461037BD4680BD4B
:1037600080B584B000AFF860B9607A602DE0F86889
:1037700000F078F80346002B01D001232DE0BB6850
:10378000B3F1FF3F21D0FFF7CFF802467B68D31A91
:10379000BA689A4202D3BB68002B16D1FB6800229C
:1037A0001A63FB68202283F83D20FB68002283F81F
:1037B0003E20FB681B6C43F02002FB681A64FB6828
:1037C000002283F83C20012307E0FB681B685B694B
:1037D00003F08003802BCAD1002318461037BD4662
:1037E00080BD80B584B000AFF860B9607A602DE02C
:1037F000F86800F037F80346002B01D001232DE0D4
:10380000BB68B3F1FF3F21D0FFF78EF802467B681B
:10381000D31ABA689A4202D3BB68002B16D1FB6850
:1038200000221A63FB68202283F83D20FB680022F7
:1038300083F83E20FB681B6C43F02002FB681A648F
:10384000FB68002283F83C20012307E0FB681B682B
:103850005B6903F00403042BCAD100231846103718
:10386000BD4680BD80B483B000AF78607B681B68C4
:103870005B6903F48063B3F5806F1BD17B681B68C1
:103880006FF480625A617B6800221A637B68202291
:1038900083F83D207B68002283F83E207B681B6C08
:1038A00043F004027B681A647B68002283F83C20A2
:1038B000012300E0002318460C37BD465DF8047B69
:1038C0007047000080B586B000AF78607B68002B41
:1038D00001D1012367E27B681B6803F00103002B21
:1038E00075D0884B9B6803F00C03042B0CD0854BE0
:1038F0009B6803F00C03082B12D1824B5B6803F426
:103900008003B3F5800F0BD17E4B1B6803F40033AB
:10391000002B5BD07B685B68002B57D1012342E210
:103920007B685B68B3F5803F06D1764B1B68754AB0
:1039300043F4803313601DE07B685B68B3F5A02F10
:103940000CD1704B1B686F4A43F4802313606D4B9E
:103950001B686C4A43F4803313600BE0694B1B68AF
:10396000684A23F480331360664B1B68654A23F46E
:10397000802313607B685B68002B13D0FEF7D4FFB5
:10398000386108E0FEF7D0FF02463B69D31A642B8A
:1039900001D9032307E25B4B1B6803F40033002BC0
:1039A000F0D014E0FEF7C0FF386108E0FEF7BCFF7E
:1039B00002463B69D31A642B01D90323F3E1514B2F
:1039C0001B6803F40033002BF0D100E000BF7B68DC
:1039D0001B6803F00203002B63D04A4B9B6803F083
:1039E0000C03002B0BD0474B9B6803F00C03082BF8
:1039F0001CD1444B5B6803F48003002B16D1414B70
:103A00001B6803F00203002B05D07B68DB68012BE9
:103A100001D00123C7E13B4B1B6823F0F8027B6810
:103A20001B69DB00374913430B603AE07B68DB68B6
:103A3000002B20D0344B01221A60FEF775FF38614D
:103A400008E0FEF771FF02463B69D31A022B01D949
:103A50000323A8E12B4B1B6803F00203002BF0D0DB
:103A6000284B1B6823F0F8027B681B69DB002549A3
:103A700013430B6015E0244B00221A60FEF754FF3D
:103A8000386108E0FEF750FF02463B69D31A022B6B
:103A900001D9032387E11B4B1B6803F00203002BB2
:103AA000F0D17B681B6803F00803002B36D07B68DD
:103AB0005B69002B16D0154B01221A60FEF734FF0C
:103AC000386108E0FEF730FF02463B69D31A022B4B
:103AD00001D9032367E10B4B5B6F03F00203002B5B
:103AE000F0D01BE0094B00221A60FEF71DFF386181
:103AF0000EE0FEF719FF02463B69D31A022B07D9E5
:103B0000032350E10038024000004742800E474244
:103B1000884B5B6F03F00203002BEAD17B681B68C4
:103B200003F00403002B00F097800023FB75814B0A
:103B30001B6C03F08053002B0FD10023BB607D4B27
:103B40001B6C7C4A43F0805313647A4B1B6C03F06C
:103B50008053BB60BB680123FB75774B1B6803F484
:103B60008073002B18D1744B1B68734A43F4807325
:103B70001360FEF7D9FE386108E0FEF7D5FE024675
:103B80003B69D31A022B01D903230CE16A4B1B6852
:103B900003F48073002BF0D07B689B68012B06D167
:103BA000644B1B6F634A43F0010313671CE07B689F
:103BB0009B68052B0CD15F4B1B6F5E4A43F00403DF
:103BC00013675C4B1B6F5B4A43F0010313670BE009
:103BD000584B1B6F574A23F001031367554B1B6F5C
:103BE000544A23F0040313677B689B68002B15D0AD
:103BF000FEF79AFE38610AE0FEF796FE02463B6940
:103C0000D31A41F28832934201D90323CBE0494BC6
:103C10001B6F03F00203002BEED014E0FEF784FECE
:103C200038610AE0FEF780FE02463B69D31A41F292
:103C30008832934201D90323B5E03E4B1B6F03F05A
:103C40000203002BEED1FB7D012B05D1394B1B6C00
:103C5000384A23F0805313647B689B69002B00F083
:103C6000A180344B9B6803F00C03082B5CD07B686D
:103C70009B69022B41D1314B00221A60FEF754FEA2
:103C8000386108E0FEF750FE02463B69D31A022B6A
:103C900001D9032387E0274B1B6803F00073002B37
:103CA000F0D17B68DA697B681B6A1A437B685B6AC0
:103CB0009B011A437B689B6A5B08013B1B041A4308
:103CC0007B68DB6A1B061B4913434B601B4B0122BD
:103CD0001A60FEF729FE386108E0FEF725FE02466D
:103CE0003B69D31A022B01D903235CE0114B1B68FB
:103CF00003F00073002BF0D054E0104B00221A6048
:103D0000FEF712FE386108E0FEF70EFE02463B6940
:103D1000D31A022B01D9032345E0064B1B6803F09D
:103D20000073002BF0D13DE07B689B69012B07D12C
:103D3000012338E000380240007000406000474234
:103D40001B4B5B68FB607B689B69012B28D0FB6881
:103D500003F480027B68DB699A4221D1FB6803F09F
:103D60003F027B681B6A9A421AD1FA6847F6C07311
:103D700013407A68526A9201934211D1FB6803F4AE
:103D800040327B689B6A5B08013B1B049A4207D167
:103D9000FB6803F070627B68DB6A1B069A4201D005
:103DA000012300E0002318461837BD4680BD00BF40
:103DB0000038024080B584B000AF786039607B681D
:103DC000002B01D10123CCE0684B1B6803F00703F3
:103DD0003A689A420CD9654B3A68D2B21A70634B72
:103DE0001B6803F007033A689A4201D00123B8E048
:103DF0007B681B6803F00203002B20D07B681B68E4
:103E000003F00403002B05D0594B9B68584A43F438
:103E1000E05393607B681B6803F00803002B05D018
:103E2000534B9B68524A43F460439360504B9B68EA
:103E300023F0F0027B689B684D4913438B607B68DD
:103E40001B6803F00103002B44D07B685B68012BE7
:103E500007D1474B1B6803F40033002B19D1012312
:103E60007FE07B685B68022B03D07B685B68032B79
:103E700007D13F4B1B6803F00073002B09D10123CE
:103E80006FE03B4B1B6803F00203002B01D10123C1
:103E900067E0374B9B6823F003027B685B6834491B
:103EA00013438B60FEF740FDF8600AE0FEF73CFD2F
:103EB0000246FB68D31A41F28832934201D90323A8
:103EC0004FE02B4B9B6803F00C027B685B689B0008
:103ED0009A42EBD1254B1B6803F007033A689A42DC
:103EE0000CD2224B3A68D2B21A70204B1B6803F0F6
:103EF00007033A689A4201D0012332E07B681B68CD
:103F000003F00403002B08D0194B9B6823F4E05204
:103F10007B68DB68164913438B607B681B6803F082
:103F20000803002B09D0124B9B6823F460427B6886
:103F30001B69DB000E4913438B6000F021F8024639
:103F40000B4B9B681B0903F00F030A49CB5C22FA59
:103F500003F3094A1360094B1B681846FEF7A0FCDF
:103F6000002318461037BD4680BD00BF003C02400C
:103F70000038024054E000080C000020100000202F
:103F80002DE9B04F90B000AF00237B630023FB63AB
:103F900000233B630023BB63594B9B6803F00C0376
:103FA000082B0DD0082B00F2A180002B02D0042B8F
:103FB00003D09BE0534BBB639BE0534BBB6398E048
:103FC0004F4B5B6803F03F037B634D4B5B6803F42F
:103FD0008003002B28D04A4B5B689B0900223B6280
:103FE0007A623B6AC3F308000021474B03FB01F2EE
:103FF000002300FB03F31344434AA0FB0212FA62BE
:104000000A46BA62FA6A1344FB627B6B0022BB6108
:10401000FA61D7E90623D7E90A01FCF73DFE02461B
:104020000B461346FB6353E0354B5B689B0900224C
:104030003B617A613B69C3F3080A4FF0000B5246BB
:104040005B464FF000004FF00001590141EAD26198
:10405000500102460B46B2EB0A0863EB0B094FF026
:1040600000024FF000034FEA891343EA98634FEAD6
:104070008812B2EB080463EB09054FF000024FF021
:104080000003EB0043EA5473E20014461D4614EBB0
:104090000A033B6045EB0B037B604FF000024FF0DF
:1040A0000003D7E9004529468B02214643EA915394
:1040B00021468A02104619467B6B0022BB60FA60DB
:1040C000D7E90223FCF7E8FD02460B461346FB63E3
:1040D0000B4B5B681B0C03F0030301335B003B637A
:1040E000FA6B3B6BB2FBF3F3BB6302E0054BBB63C4
:1040F00000BFBB6B18464037BD46BDE8B08F00BF60
:10410000003802400024F40040787D0180B400AF04
:10411000034B1B681846BD465DF8047B704700BF23
:104120000C00002080B500AFFFF7F0FF0246054B02
:104130009B689B0A03F007030349CB5C22FA03F355
:10414000184680BD0038024064E0000880B500AF2A
:10415000FFF7DCFF0246054B9B685B0B03F0070390
:104160000349CB5C22FA03F3184680BD00380240B5
:1041700064E0000880B582B000AF78607B68002BF7
:1041800001D101237BE07B685B6A002B08D17B684F
:104190005B68B3F5827F09D07B680022DA6105E0B5
:1041A0007B6800221A617B6800225A617B680022CA
:1041B0009A627B6893F85130DBB2002B06D17B68A2
:1041C000002283F850207868FEF74CF97B680222C1
:1041D00083F851207B681B681A687B681B6822F093
:1041E00040021A607B685B6803F482727B689B689C
:1041F00003F404431A437B68DB6803F400631A4347
:104200007B681B6903F002031A437B685B6903F058
:1042100001031A437B689B6903F400731A437B68AC
:10422000DB6903F038031A437B681B6A03F08003E1
:1042300042EA03017B689B6A03F400527B681B68B7
:104240000A431A607B689B691B0C03F004017B68BE
:104250005B6A03F010027B681B680A435A607B6844
:104260001B68DA697B681B6822F40062DA617B688C
:1042700000225A657B68012283F8512000231846EA
:104280000837BD4680BD000080B487B000AFF8603D
:10429000B9607A607B800023FB75FB6893F850302F
:1042A000012B01D1022375E0FB68012283F8502025
:1042B000FB6893F85130BB75FB685B683B61BB7D65
:1042C000012B0DD03B69B3F5827F06D1FB689B685B
:1042D000002B02D1BB7D042B02D00223FB7554E0DE
:1042E000BB68002B05D07B68002B02D07B88002B9D
:1042F00002D10123FB7548E0FB6893F85130DBB233
:10430000042B03D0FB68052283F85120FB680022B0
:104310005A65FB68BA681A63FB687A889A86FB68F4
:104320007A88DA86FB687A689A63FB687A889A8763
:10433000FB687A88DA87FB68DB68002B06D0FB68AD
:10434000174A1A64FB68174A5A6405E0FB68164A64
:104350001A64FB68154A5A64FB681B685A68FB6854
:104360001B6842F0E0025A60FB681B681B6803F0A0
:104370004003402B08D0FB681B681A68FB681B6869
:1043800042F040021A6000E000BFFB68002283F8A0
:104390005020FB7D18461C37BD465DF8047B7047F6
:1043A000C546000825470008014600086546000884
:1043B00080B588B000AF78607B681B685B68FB6184
:1043C0007B681B689B68BB61BB699B0903F00103A9
:1043D000002B0FD1BB6903F00103002B0AD0FB694E
:1043E0009B0903F00103002B04D07B681B6C7868E9
:1043F0009847D7E0BB695B0803F00103002B0AD0A4
:10440000FB69DB0903F00103002B04D07B685B6CC4
:1044100078689847C6E0BB695B0903F00103002B8D
:104420000CD1BB699B0903F00103002B06D1BB69CA
:104430001B0A03F00103002B00F0B480FB695B0949
:1044400003F00103002B00F0AD80BB699B0903F072
:104450000103002B23D07B6893F85130DBB2032B90
:1044600011D07B685B6D43F004027B685A650023C2
:104470007B617B681B68DB687B617B681B689B6872
:104480007B617B690BE000233B617B681B68DB6819
:104490003B617B681B689B683B613B6982E0BB6951
:1044A0005B0903F00103002B14D07B685B6D43F0C4
:1044B00001027B685A650023FB607B681B689B6870
:1044C000FB607B681B681A687B681B6822F04002EF
:1044D0001A60FB68BB691B0A03F00103002B0CD0B8
:1044E0007B685B6D43F008027B685A650023BB6004
:1044F0007B681B689B68BB60BB687B685B6D002B3F
:104500004FD07B681B685A687B681B6822F0E0020A
:104510005A607B68012283F85120FB6903F0020393
:10452000002B04D1FB6903F00103002B34D07B681E
:104530001B685A687B681B6822F003025A607B681C
:10454000DB6C002B11D07B68DB6C184A1A657B682A
:10455000DB6C1846FEF799FB0346002B05D07B6801
:104560005B6D43F040027B685A657B689B6C002B57
:1045700016D07B689B6C0D4A1A657B689B6C18464D
:10458000FEF783FB0346002B0AD07B685B6D43F08C
:1045900040027B685A6503E0786800F013F800E099
:1045A00000BF00BF2037BD4680BD00BFD945000811
:1045B00080B483B000AF786000BF0C37BD465DF8B3
:1045C000047B704780B483B000AF786000BF0C37C5
:1045D000BD465DF8047B704780B584B000AF78605D
:1045E0007B689B6BFB60FB680022DA87FB6800221C
:1045F000DA86F868FFF7E6FF00BF1037BD4680BDDA
:1046000080B582B000AF78607B681B6803F10C0254
:104610007B689B6B1278D2B21A707B689B6B5A1CBA
:104620007B689A637B68DB8F9BB2013B9AB27B68A5
:10463000DA877B68DB8F9BB2002B0FD17B681B680E
:104640005A687B681B6822F060025A607B68DB8EC8
:104650009BB2002B02D1786800F05EF900BF0837EA
:10466000BD4680BD80B582B000AF78607B681A6BB4
:104670007B681B680C3312781A707B681B6B5A1CA2
:104680007B681A637B68DB8E9BB2013B9AB27B68C6
:10469000DA867B68DB8E9BB2002B0FD17B681B68B0
:1046A0005A687B681B6822F080025A607B68DB8F47
:1046B0009BB2002B02D1786800F02EF900BF0837BA
:1046C000BD4680BD80B582B000AF78607B681B6856
:1046D000DA687B689B6B92B21A807B689B6B9A1C32
:1046E0007B689A637B68DB8F9BB2013B9AB27B68E5
:1046F000DA877B68DB8F9BB2002B0FD17B681B684E
:104700005A687B681B6822F040025A607B68DB8E27
:104710009BB2002B02D1786800F0FEF800BF08378A
:10472000BD4680BD80B582B000AF78607B681B6BF2
:104730001A887B681B68DA607B681B6B9A1C7B6835
:104740001A637B68DB8E9BB2013B9AB27B68DA8688
:104750007B68DB8E9BB2002B0FD17B681B685A688D
:104760007B681B6822F080025A607B68DB8F9BB2FB
:10477000002B02D1786800F0CFF800BF0837BD46A3
:1047800080BD000080B588B000AFF860B9603B60C4
:104790001346FB71FEF7C8F80246BB6A9B1A3A68DB
:1047A0001344FB61FEF7C0F8B861394B1B685B012D
:1047B0001B0DFA6902FB03F37B6154E03B68B3F124
:1047C000FF3F50D0FEF7B0F80246BB69D31AFA6932
:1047D0009A4202D9FB69002B3DD1FB681B685A68DD
:1047E000FB681B6822F0E0025A60FB685B68B3F567
:1047F000827F11D1FB689B68B3F5004F04D0FB6842
:104800009B68B3F5806F07D1FB681B681A68FB686B
:104810001B6822F040021A60FB689B6AB3F5005FD8
:104820000FD1FB681B681A68FB681B6822F40052F2
:104830001A60FB681B681A68FB681B6842F4005228
:104840001A60FB68012283F85120FB68002283F87C
:104850005020032317E07B69002B01D10023FB616B
:104860007B69013B7B61FB681B689A68BB681340EE
:10487000BA689A420CBF01230023DBB21A46FB79C7
:104880009A429BD1002318462037BD4680BD00BF09
:104890000C00002080B588B002AFF860B9607A6083
:1048A0001B4B1B681B4AA2FB03235B0D4FF47A7260
:1048B00002FB03F37B61FB685B68B3F5827F12D177
:1048C0007B680093BB6800228021F868FFF75AFFDD
:1048D0000346002B16D0FB685B6D43F02002FB689B
:1048E0005A6503230FE07B69002B0AD07B69013BEB
:1048F0007B61FB681B689B6803F08003802BF2D010
:1049000000E000BF002318461837BD4680BD00BF39
:104910000C000020819F5E1680B586B000AF7860E5
:10492000354B1B68354AA2FB03235B0A642202FB5A
:1049300003F33B61FDF7F8FF78617B681B685A68F9
:104940007B681B6822F020025A603B69002B06D16D
:104950007B685B6D43F020027B685A6509E03B6928
:10496000013B3B617B681B689B6803F00203002BE3
:10497000EBD07A6964217868FFF78CFF0346002B3F
:1049800005D07B685B6D43F020027B685A657B68CD
:104990009B68002B0AD10023FB607B681B68DB68E7
:1049A000FB607B681B689B68FB60FB687B685B6DDA
:1049B000002B15D17B6893F85130DBB2042B07D163
:1049C0007B68012283F851207868FFF7F1FD0EE043
:1049D0007B68012283F851207868FDF7A9FC06E086
:1049E0007B68012283F851207868FFF7EBFD00BF58
:1049F0001837BD4680BD00BF0C000020F1197605B8
:104A000080B582B000AF78607B68002B01D10123B4
:104A100041E07B6893F83D30DBB2002B06D17B6828
:104A2000002283F83C207868FDF76CFD7B68022249
:104A300083F83D207B681A687B680433194610466A
:104A400000F0F4F87B68012283F846207B6801229D
:104A500083F83E207B68012283F83F207B68012297
:104A600083F840207B68012283F841207B68012283
:104A700083F842207B68012283F843207B6801226F
:104A800083F844207B68012283F845207B6801225B
:104A900083F83D20002318460837BD4680BD80B509
:104AA00084B000AF786039600023FB737B6893F8B3
:104AB0003C30012B01D10223B4E07B68012283F852
:104AC0003C207B68022283F83D207B681B689B6842
:104AD000BB60BB6823F07703BB60BB6823F47F43F4
:104AE000BB607B681B68BA689A603B681B68B3F55B
:104AF000005F3ED0B3F5005F00F28780B3F5805FC2
:104B000000F08680B3F5805F7FD8702B1AD0702BB1
:104B10007BD8602B50D0602B77D8502B3CD0502BBB
:104B200073D8402B58D0402B6FD8302B64D0302B0B
:104B30006BD8202B60D0202B67D8002B5CD0102B9B
:104B40005AD062E07B6818683B6899683B685A688D
:104B50003B68DB6800F064F97B681B689B68BB609E
:104B6000BB6843F07703BB607B681B68BA689A60D8
:104B70004FE07B6818683B6899683B685A683B68F7
:104B8000DB6800F04DF97B681B689A687B681B68DE
:104B900042F480429A603CE07B6818683B68596840
:104BA0003B68DB681A4600F0C1F87B681B6850213F
:104BB000184600F01AF92CE07B6818683B685968C1
:104BC0003B68DB681A4600F0E0F87B681B686021F0
:104BD000184600F00AF91CE07B6818683B685968C1
:104BE0003B68DB681A4600F0A1F87B681B6840212F
:104BF000184600F0FAF80CE07B681A683B681B68FE
:104C00001946104600F0F1F803E00123FB7300E0C1
:104C100000BF7B68012283F83D207B68002283F877
:104C20003C20FB7B18461037BD4680BD80B485B064
:104C300000AF786039607B681B68FB607B68344A32
:104C400093420FD07B68B3F1804F0BD07B68314A21
:104C5000934207D07B68304A934203D07B682F4A47
:104C6000934208D1FB6823F07003FB603B685B68EC
:104C7000FA681343FB607B68254A93421BD07B682C
:104C8000B3F1804F17D07B68224A934213D07B68E0
:104C9000214A93420FD07B68204A93420BD07B6815
:104CA0001F4A934207D07B681E4A934203D07B6819
:104CB0001D4A934208D1FB6823F44073FB603B68B4
:104CC000DB68FA681343FB60FB6823F080023B68F3
:104CD0005B691343FB607B68FA681A603B689A68FB
:104CE0007B68DA623B681A687B689A627B68084A6C
:104CF000934203D13B681A697B681A637B6801227F
:104D00005A6100BF1437BD465DF8047B704700BF91
:104D1000000001400004004000080040000C00407A
:104D200000400140004401400048014080B487B089
:104D300000AFF860B9607A60FB681B6A7B61FB6852
:104D40001B6A23F00102FB681A62FB689B693B61E6
:104D50003B6923F0F0033B617B681B013A69134315
:104D60003B617B6923F00A037B617A69BB6813436B
:104D70007B61FB683A699A61FB687A691A6200BFD5
:104D80001C37BD465DF8047B704780B487B000AF28
:104D9000F860B9607A60FB681B6A23F01002FB6858
:104DA0001A62FB689B697B61FB681B6A3B617B69DC
:104DB00023F470437B617B681B037A6913437B6137
:104DC0003B6923F0A0033B61BB681B013A691343B5
:104DD0003B61FB687A699A61FB683A691A6200BFB5
:104DE0001C37BD465DF8047B704780B485B000AFCA
:104DF000786039607B689B68FB60FB6823F0700318
:104E0000FB603A68FB68134343F00703FB607B6871
:104E1000FA689A6000BF1437BD465DF8047B70479E
:104E200080B487B000AFF860B9607A603B60FB681F
:104E30009B687B617B6923F47F437B613B681A023B
:104E40007B681A43BB6813437A6913437B61FB6831
:104E50007A699A6000BF1C37BD465DF8047B7047D5
:104E600080B485B000AF786039607B6893F83C30DF
:104E7000012B01D1022350E07B68012283F83C2002
:104E80007B68022283F83D207B681B685B68FB60BF
:104E90007B681B689B68BB60FB6823F07003FB604A
:104EA0003B681B68FA681343FB607B681B68FA6801
:104EB0005A607B681B681C4A934218D07B681B6849
:104EC000B3F1804F13D07B681B68184A93420ED011
:104ED0007B681B68164A934209D07B681B68154A99
:104EE000934204D07B681B68134A93420CD1BB6881
:104EF00023F08003BB603B685B68BA681343BB6008
:104F00007B681B68BA689A607B68012283F83D2041
:104F10007B68002283F83C20002318461437BD46E6
:104F20005DF8047B704700BF0000014000040040B2
:104F300000080040000C00400040014080B582B0F5
:104F400000AF78607B68002B01D101233FE07B68D4
:104F500093F83D30DBB2002B06D17B68002283F84A
:104F60003C207868FDF7F0FA7B68242283F83D2026
:104F70007B681B68DA687B681B6822F40052DA6081
:104F8000786800F0DFFD7B681B681A697B681B6826
:104F900022F490421A617B681B685A697B681B681F
:104FA00022F02A025A617B681B68DA687B681B68FA
:104FB00042F40052DA607B6800221A647B68202287
:104FC00083F83D207B68202283F83E20002318468A
:104FD0000837BD4680BD80B58AB002AFF860B960C1
:104FE0003B601346FB8000237B61FB6893F83D30F8
:104FF000DBB2202B7CD1BB68002B02D0FB88002BBE
:1050000001D1012375E0FB6893F83C30012B01D1FD
:1050100002236EE0FB68012283F83C20FB6800223B
:105020001A64FB68212283F83D20FDF77DFC78613E
:10503000FB68FA889A84FB68FA88DA84FB689B68C4
:10504000B3F5805F08D1FB681B69002B04D10023F6
:10505000FB61BB68BB6103E0BB68FB610023BB6114
:10506000FB68002283F83C202AE03B6800937B69C0
:1050700000228021F86800F01FFB0346002B01D0BE
:10508000032336E0FB69002B0BD1BB691B881A4652
:10509000FB681B68C2F308025A60BB690233BB613C
:1050A00007E0FB691A78FB681B685A60FB690133EB
:1050B000FB61FB68DB8C9BB2013B9AB2FB68DA8434
:1050C000FB68DB8C9BB2002BCFD13B6800937B69E4
:1050D00000224021F86800F0EFFA0346002B01D0CF
:1050E000032306E0FB68202283F83D20002300E034
:1050F000022318462037BD4680BD80B584B000AF7E
:10510000F860B9601346FB80FB6893F83E30DBB271
:10511000202B1DD1BB68002B02D0FB88002B01D1B6
:10512000012316E0FB6893F83C30012B01D10223E8
:105130000FE0FB68012283F83C20FB6800221A6321
:10514000FB881A46B968F86800F024FB034600E0C3
:10515000022318461037BD4680BD000080B5BAB0A6
:1051600000AF78607B681B681B68C7F8E4307B6819
:105170001B68DB68C7F8E0307B681B685B69C7F8B1
:10518000DC300023C7F8D8300023C7F8D430D7F874
:10519000E43003F00F03C7F8D830D7F8D830002B2D
:1051A0000FD1D7F8E43003F02003002B09D0D7F853
:1051B000E03003F02003002B03D0786800F007FCF8
:1051C00056E2D7F8D830002B00F0DE80D7F8DC307C
:1051D00003F00103002B06D1D7F8E03003F49073FD
:1051E000002B00F0D180D7F8E43003F00103002B4E
:1051F0000BD0D7F8E03003F48073002B05D07B6828
:105200001B6C43F001027B681A64D7F8E43003F0AA
:105210000403002B0BD0D7F8DC3003F00103002B84
:1052200005D07B681B6C43F002027B681A64D7F8D8
:10523000E43003F00203002B0BD0D7F8DC3003F08E
:105240000103002B05D07B681B6C43F004027B68D4
:105250001A64D7F8E43003F00803002B11D0D7F814
:10526000E03003F02003002B05D1D7F8DC3003F049
:105270000103002B05D07B681B6C43F008027B68A0
:105280001A647B681B6C002B00F0ED81D7F8E430CA
:1052900003F02003002B08D0D7F8E03003F0200300
:1052A000002B02D0786800F092FB7B681B685B697A
:1052B00003F04003402B0CBF01230023DBB2C7F8EF
:1052C000D4307B681B6C03F00803002B03D1D7F8A4
:1052D000D430002B4FD0786800F09AFA7B681B68B6
:1052E0005B6903F04003402B41D17B681B6814339A
:1052F000C7F89C30D7F89C3053E8003FC7F8983087
:10530000D7F8983023F04003C7F8D0307B681B688B
:105310001433D7F8D020C7F8A820C7F8A430D7F89E
:10532000A410D7F8A82041E80023C7F8A030D7F888
:10533000A030002BD9D17B689B6B002B13D07B68EE
:105340009B6B7D4A1A657B689B6B1846FDF79DFC3D
:105350000346002B16D07B689B6B1B6D7A68926BA3
:10536000104698470EE0786800F090F90AE07868F7
:1053700000F08CF906E0786800F088F97B6800227C
:105380001A6470E100BF6EE17B681B6B012B40F07B
:105390004A81D7F8E43003F01003002B00F043817A
:1053A000D7F8E03003F01003002B00F03C8100231D
:1053B000BB607B681B681B68BB607B681B685B68A5
:1053C000BB60BB687B681B685B6903F04003402BD4
:1053D00040F0B4807B689B6B1B685B68A7F8BE30AD
:1053E000B7F8BE30002B00F040817B689B8DB7F88A
:1053F000BE209A4280F039817B68B7F8BE20DA85FA
:105400007B689B6BDB69B3F5807F00F088807B68ED
:105410001B680C33C7F88830D7F8883053E8003F52
:10542000C7F88430D7F8843023F48073C7F8B830D5
:105430007B681B680C33D7F8B820C7F89420C7F8EE
:105440009030D7F89010D7F8942041E80023C7F89F
:105450008C30D7F88C30002BD9D17B681B68143383
:105460007B677B6F53E8003F3B673B6F23F0010393
:10547000C7F8B4307B681B681433D7F8B420C7F87A
:105480008020FB67F96FD7F8802041E80023BB67D5
:10549000BB6F002BE1D17B681B6814333B663B6E0E
:1054A00053E8003FFB65FB6D23F04003C7F8B030C5
:1054B0007B681B681433D7F8B020FA66BB66B96EF8
:1054C000FA6E41E800237B667B6E002BE3D17B689C
:1054D000202283F83E207B6800221A637B681B68C9
:1054E0000C33FB64FB6C53E8003FBB64BB6C23F0E4
:1054F0001003C7F8AC307B681B680C33D7F8AC20BE
:10550000BA657B65796DBA6D41E800233B653B6DFB
:10551000002BE3D17B689B6B1846FDF746FB7B684D
:105520009A8D7B68DB8D9BB2D31A9BB21946786843
:1055300000F0B6F899E000BFD75800087B689A8D54
:105540007B68DB8D9BB2D31AA7F8CE307B68DB8DEE
:105550009BB2002B00F08B80B7F8CE30002B00F010
:1055600086807B681B680C33BB63BB6B53E8003FD2
:105570007B637B6B23F49073C7F8C8307B681B6830
:105580000C33D7F8C8207A643B64396C7A6C41E8F4
:105590000023FB63FB6B002BE3D17B681B68143398
:1055A0007B627B6A53E8003F3B623B6A23F0010366
:1055B000C7F8C4307B681B681433D7F8C4203A633B
:1055C000FB62F96A3A6B41E80023BB62BB6A002BBD
:1055D000E3D17B68202283F83E207B6800221A6397
:1055E0007B681B680C333B613B6953E8003FFB6001
:1055F000FB6823F01003C7F8C0307B681B680C33CE
:10560000D7F8C020FA61BB61B969FA6941E80023A3
:105610007B617B69002BE3D1B7F8CE3019467868FF
:1056200000F03EF823E0D7F8E43003F08003002BCD
:1056300009D0D7F8E03003F08003002B03D078685E
:1056400000F05DF914E0D7F8E43003F04003002BDC
:105650000ED0D7F8E03003F04003002B08D0786874
:1056600000F09DF904E000BF02E000BF00E000BFD1
:10567000E837BD4680BD00BF80B483B000AF78601E
:1056800000BF0C37BD465DF8047B704780B483B023
:1056900000AF786000BF0C37BD465DF8047B7047F3
:1056A00080B483B000AF78600B467B8000BF0C37BE
:1056B000BD465DF8047B704780B590B000AFF860E0
:1056C000B9603B601346FB7150E0BB6CB3F1FF3F28
:1056D0004CD0BB6C002B07D0FDF726F902463B6887
:1056E000D31ABA6C9A4241D2FB681B680C33BB6276
:1056F000BB6A53E8003F7B627B6A23F4D073FB6391
:10570000FB681B680C33FA6B7A633B63396B7A6B0B
:1057100041E80023FB62FB6A002BE5D1FB681B68B4
:1057200014337B617B6953E8003F3B613B6923F0A5
:105730000103BB63FB681B681433BA6B3A62FB61FD
:10574000F9693A6A41E80023BB61BB69002BE5D1E6
:10575000FB68202283F83D20FB68202283F83E204E
:10576000FB68002283F83C2003230FE0FB681B68E2
:105770001A68BB681340BA689A420CBF0123002321
:10578000DBB21A46FB799A429FD000231846403775
:10579000BD4680BD80B485B000AFF860B9601346E7
:1057A000FB80FB68BA689A62FB68FA889A85FB6896
:1057B000FA88DA85FB6800221A64FB68222283F8E3
:1057C0003E20FB68002283F83C20FB681B69002B0D
:1057D00007D0FB681B68DA68FB681B6842F48072BC
:1057E000DA60FB681B685A69FB681B6842F00102BB
:1057F0005A61FB681B68DA68FB681B6842F020028C
:10580000DA60002318461437BD465DF8047B704704
:1058100080B495B000AF78607B681B680C337B6305
:105820007B6B53E8003F3B633B6B23F49073FB645B
:105830007B681B680C33FA6C3A64FB63F96B3A6C57
:1058400041E80023BB63BB6B002BE5D17B681B6881
:1058500014333B623B6A53E8003FFB61FB6923F072
:105860000103BB647B681B681433BA6CFA62BB62C9
:10587000B96AFA6A41E800237B627B6A002BE5D1B2
:105880007B681B6B012B19D17B681B680C33FB6099
:10589000FB6853E8003FBB60BB6823F010037B64E8
:1058A0007B681B680C337A6CBA617B617969BA6971
:1058B00041E800233B613B69002BE5D17B68202256
:1058C00083F83E207B6800221A6300BF5437BD4630
:1058D0005DF8047B704780B584B000AF78607B686A
:1058E0009B6BFB60FB680022DA85FB680022DA8490
:1058F000F868FFF7CBFE00BF1037BD4680BD80B40F
:1059000085B000AF78607B6893F83D30DBB2212B27
:105910003ED17B689B68B3F5805F14D17B681B69BF
:10592000002B10D17B681B6AFB60FB681B881A4642
:105930007B681B68C2F308025A607B681B6A9A1C6A
:105940007B681A6208E07B681B6A591C7A681162DE
:105950001A787B681B685A607B68DB8C9BB2013BC2
:105960009BB27A681946D184002B0FD17B681B68E3
:10597000DA687B681B6822F08002DA607B681B684B
:10598000DA687B681B6842F04002DA60002300E0BE
:10599000022318461437BD465DF8047B704780B576
:1059A00082B000AF78607B681B68DA687B681B6830
:1059B00022F04002DA607B68202283F83D2078687C
:1059C000FFF75AFE002318460837BD4680BD80B554
:1059D0008CB000AF78607B6893F83E30DBB2222B4E
:1059E00040F0AB807B689B68B3F5805F17D17B6824
:1059F0001B69002B13D10023FB627B689B6ABB628F
:105A00007B681B685B689BB2C3F308039AB2BB6AEE
:105A10001A807B689B6A9A1C7B689A6226E07B6886
:105A20009B6AFB620023BB627B689B68B3F5805F67
:105A300007D07B689B68002B0AD17B681B69002B11
:105A400006D17B681B685B68DAB2FB6A1A7008E0F3
:105A50007B681B685B68DBB203F07F03DAB2FB6A2A
:105A60001A707B689B6A5A1C7B689A627B68DB8D24
:105A70009BB2013B9BB27A681946D185002B5AD163
:105A80007B681B68DA687B681B6822F02002DA609A
:105A90007B681B68DA687B681B6822F48072DA60B6
:105AA0007B681B685A697B681B6822F001025A6197
:105AB0007B68202283F83E207B681B6B012B35D14D
:105AC0007B6800221A637B681B680C337B617B69EF
:105AD00053E8003F3B613B6923F010037B627B6826
